:100000000C945D000C947A000C947A000C947A00A5
:100010000C947A000C947A000C947A000C940A01E7
:100020000C947A000C947A000C947A000C947A0068
:100030000C947A000C947A000C947A000C947A0058
:100040000C94C0000C947A000C947A000C947A0002
:100050000C947A000C947A000C947A000C947A0038
:100060000C947A000C947A00000000080002010051
:100070000003040700000000000000000200000070
:1000800000250028002B0000000000240027002A83
:100090000004040404040404040202020202020331
:1000A000030303030301020408102040800102043B
:1000B0000810200102040810200011241FBECFEFF9
:1000C000D8E0DEBFCDBF11E0A0E0B1E0E6E3F6E0AE
:1000D00002C005900D92A230B107D9F721E0A2E04D
:1000E000B1E001C01D92AC31B207E1F70E94CD0131
:1000F0000C9419030C94000090E0FC01EB55FF4FA9
:1001000024918F569F4FFC018491882399F090E0B1
:10011000880F991FFC01E957FF4FA591B491FC018D
:10012000E358FF4F859194918FB7F894EC91E22BAF
:10013000EC938FBF08953FB7F89480911801909188
:100140001901A0911A01B0911B0126B5A89B05C009
:100150002F3F19F00196A11DB11D3FBFBA2FA92F46
:10016000982F8827BC01CD01620F711D811D911D43
:1001700042E0660F771F881F991F4A95D1F70895AF
:100180001F920F920FB60F9211242F933F938F93CC
:100190009F93AF93BF938091140190911501A0910B
:1001A0001601B09117013091130123E0230F2D3771
:1001B00058F50196A11DB11D2093130180931401E0
:1001C00090931501A0931601B09317018091180127
:1001D00090911901A0911A01B0911B010196A11DE6
:1001E000B11D8093180190931901A0931A01B09347
:1001F0001B01BF91AF919F918F913F912F910F90D4
:100200000FBE0F901F90189526E8230F0296A11D90
:10021000B11DD2CF1F920F920FB60F9211242F93C0
:100220003F938F939F93AF93BF93EF93FF938091EF
:100230000F0190911001A0911101B0911201892B31
:100240008A2B8B2BB1F190910E01E0910C01F09172
:100250000D0180818927808380910F019091100189
:10026000A0911101B0911201181619061A061B0669
:100270009CF480910F0190911001A0911101B09117
:1002800012010197A109B10980930F019093100108
:10029000A0931101B0931201FF91EF91BF91AF9123
:1002A0009F918F913F912F910F900FBE0F901F90B4
:1002B000189580910001ECE7F0E0E4919FEF9093B6
:1002C0000001E13009F431C068F1E23009F433C0D3
:1002D00090E0FC01E859FF4F2491FC01EB55FF4FE2
:1002E0003491FC01EF56FF4FE491EE23A9F2222353
:1002F00051F0233009F43AC078F5213009F43CC0BC
:10030000223009F43DC0F0E0EE0FFF1FE358FF4F2D
:10031000A591B4918FB7F894EC9130953E233C931E
:100320008FBFBACF10926E00D3CF90916F009D7F98
:1003300090936F00CDCF909170009D7F909370004F
:1003400091E09093B0009091B100987F9460909369
:10035000B1001092B300BCCF2730A9F02830C9F00B
:10036000243089F6809180008F7D03C080918000C9
:100370008F7780938000C7CF84B58F7784BDC3CF3C
:1003800084B58F7DFBCF8091B0008F778093B000D4
:10039000BACF8091B0008F7DF9CF789484B5826018
:1003A00084BD84B5816084BD85B5826085BD85B519
:1003B000816085BD80916E00816080936E00109297
:1003C0008100809181008260809381008091810012
:1003D00081608093810080918000816080938000A3
:1003E0008091B10084608093B1008091B000816001
:1003F0008093B00080917A00846080937A0080912D
:100400007A00826080937A0080917A008160809384
:100410007A0080917A00806880937A001092C100FF
:1004200083E00E947C0004E910E048EA242E40E0CA
:10043000342ECC24CA94DC2C7601809100018330C8
:1004400029F5ECE7F0E0C491C7FDBEC083E00E944F
:100450007C00CC2309F488C0C23009F099C0809197
:10046000B100887F82608093B10087EC8093B300F5
:10047000C0920F01D0921001E0921101F09212018E
:10048000809170008260809370009EC08F3F09F061
:100490009BC083E080930001ECE7F0E0C491CF3F84
:1004A00009F492C0C13011F148F0C23009F43BC0E8
:1004B000C7FD8AC083E00E947C00CECF14BC15BC6F
:1004C00084B5826084BD85B5816085BDF801849165
:1004D000E82FF0E0EE0FFF1FE358FF4F8591949156
:1004E000F101849180930301C0E0B0CF10928000AD
:1004F00010928100809181008860809381008091BA
:100500008100816080938100F8018491E82FF0E000
:10051000EE0FFF1FE358FF4F85919491F1018491F5
:100520008093020193CF1092B0001092B10080919D
:10053000B00082608093B0008091B10081608093B0
:10054000B100F8018491E82FF0E0EE0FFF1FE358AF
:10055000FF4F8591949190930D0180930C01F101CF
:10056000849180930E0172CF85B5887F826085BDAE
:1005700087EC87BDC0920801D0920901E0920A0180
:10058000F0920B0180916E00826080936E001CC01F
:10059000C13009F046C080918100887F81608093DE
:1005A000810086E496E09093890080938800C09251
:1005B0000401D0920501E0920601F09207018091BA
:1005C0006F00826080936F000E949B002B013C01B2
:1005D0008CE2882E99249394A12CB12C0E949B002C
:1005E0006419750986099709683E7340810591056C
:1005F000A8F391E0891A9108A108B108E8EE4E0E1F
:10060000E3E05E1E611C711C81149104A104B1041D
:1006100029F780E090E0892B09F40FCF0E940000B9
:100620000CCFC23021F0C111CFCF86E4A2CF86E437
:060630001DCFF894FFCF7E
:02063600FF00C3
:00000001FF
