:100000000C94FB020C9423030C9423030C94230301
:100010000C9423030C9423030C9423030C943510A9
:100020000C9423030C9423030C9423030C942303B8
:100030000C9423030C9423030C9423030C942303A8
:100040000C94EB0F0C9423030C94B7100C949110A8
:100050000C9423030C9423030C9423030C94230388
:100060000C94CC0E0C942303000000817E00000051
:10007000000000E77E180000003CE7E7FF3C0000BE
:10008000007EE7E7FFFF7E3C00000000003E5B4F84
:100090005B3E3E6B4F6B3E1C3E7C3E1C183C7E3CE8
:1000A000181C577D571C1C5E7F5E1C00183C1800F6
:1000B000FFE7C3E7FF0018241800FFE7DBE7FF3086
:1000C000483A060E2629792926407F050507407FF4
:1000D00005253F5A3CE73C5A7F3E1C1C08081C1C67
:1000E0003E7F14227F22145F5F005F5F06097F015D
:1000F0007F006689956A606060606094A2FFA29448
:1001000008047E040810207E201008082A1C080815
:100110001C2A08081E101010100C1E0C1E0C303863
:100120003E3830060E3E0E06000000000000005F64
:1001300000000007000700147F147F14242A7F2A80
:100140001223130864623649562050000807030042
:10015000001C2241000041221C002A1C7F1C2A088E
:10016000083E0808008070300008080808080000F1
:1001700060600020100804023E5149453E00427F65
:10018000400072494949462141494D331814127FB4
:100190001027454545393C4A494931412111090754
:1001A0003649494936464949291E000014000000D5
:1001B00040340000000814224114141414140041A7
:1001C00022140802015909063E415D594E7C121164
:1001D000127C7F494949363E414141227F4141419C
:1001E0003E7F494949417F090909013E4141517317
:1001F0007F0808087F00417F41002040413F017F88
:10020000081422417F404040407F021C027F7F044F
:1002100008107F3E4141413E7F090909063E415198
:10022000215E7F09192946264949493203017F0188
:10023000033F4040403F1F2040201F3F4038403F89
:10024000631408146303047804036159494D43009F
:100250007F4141410204081020004141417F0402D6
:10026000010204404040404000030708002054546D
:1002700078407F284444383844444428384444284B
:100280007F385454541800087E090218A4A49C789E
:100290007F0804047800447D40002040403D007FFA
:1002A0001028440000417F40007C047804787C08DA
:1002B0000404783844444438FC18242418182424AE
:1002C00018FC7C08040408485454542404043F4493
:1002D000243C4040207C1C2040201C3C4030403CC2
:1002E00044281028444C9090907C4464544C440022
:1002F0000836410000007700000041360800020186
:100300000204023C2623263C1EA1A161123A404071
:10031000207A3854545559215555794122545478EE
:1003200042215554784020545579400C1E52721287
:100330003955555559395454545939555454580010
:1003400000457C410002457D420001457C407D1214
:1003500011127DF0282528F07C5455450020545476
:100360007C547C0A097F4932494949323A44444421
:100370003A324A4848303A4141217A3A424020785C
:10038000009DA0A07D3D4242423D3D4040403D3C5D
:1003900024FF2424487E4943662B2FFC2F2BFF0982
:1003A00029F620C0887E0903205454794100004476
:1003B0007D413048484A32384040227A007A0A0A61
:1003C000727D0D19317D2629292F282629292926D4
:1003D00030484D4020380808080808080808382F19
:1003E00010C8ACBA2F102834FA00007B00000814A3
:1003F0002A142222142A14085500550055AA55AA79
:1004000055AAFF55FF55FF000000FF00101010FF18
:1004100000141414FF001010FF00FF1010F010F073
:10042000141414FC001414F700FF0000FF00FF1464
:1004300014F404FC141417101F10101F101F1414B0
:10044000141F00101010F0000000001F10101010FA
:100450001F10101010F010000000FF1010101010EE
:1004600010101010FF10000000FF140000FF00FF2C
:1004700000001F10170000FC04F4141417101714C8
:1004800014F404F40000FF00F714141414141414EA
:10049000F700F7141414171410101F101F1414145D
:1004A000F4141010F010F000001F101F0000001FC7
:1004B00014000000FC140000F010F01010FF10FFFA
:1004C000141414FF141010101F00000000F010FF8F
:1004D000FFFFFFFFF0F0F0F0F0FFFFFF0000000073
:1004E00000FFFF0F0F0F0F0F3844443844FC4A4AF7
:1004F0004A347E02020606027E027E0263554941AC
:10050000633844443C04407E201E2006027E0202E2
:1005100099A5E7A5991C2A492A1C4C7201724C30F6
:100520004A4D4D303048784830BC625A463D3E49CD
:100530004949007E0101017E2A2A2A2A2A44445F71
:10054000444440514A444040444A51400000FF0165
:1005500003E080FF000008086B6B08361236243673
:10056000060F090F060000181800000010100030D8
:1005700040FF0101001F01011E00191D1712003C60
:100580003C3C3C000000000000000000230026006E
:1005900029003C7EE7E7FFFF7E3C00008181423C72
:1005A000000000000000240027002A0000000008CE
:1005B000000201000003040700000000000000002A
:1005C00001020408102040800102040810200102EA
:1005D0000408102000000000250028002B0004045F
:1005E00004040404040402020202020203030303DB
:1005F000030302002E1111241FBECFEFD8E0DEBF8F
:10060000CDBF11E0A0E0B1E0EAE6FEE202C0059055
:100610000D92A435B107D9F723E0A4E5B1E001C0FC
:100620001D92A030B207E1F712E0CBEFD2E004C098
:100630002197FE010E942817CA3FD107C9F70E94DF
:100640008B110C9433170C94000020912A0281E046
:10065000213208F044C0809106028111FCCF8091C4
:10066000290292E09093060291E0909305029FEF99
:10067000909304021092030220930202A9E0B2E0D8
:10068000E2EEF1E090E0291331C01092E101909187
:10069000E101880F892B8093E1018091E001813095
:1006A00049F51092E0018091E1018093BB008091B7
:1006B000BC0083FDF8CF85EC8093BC0080910602DE
:1006C0008230E1F3809104028F3FB1F08091040207
:1006D0008032A1F080910402803391F084E0109286
:1006E000080210922A021092070208953D91319358
:1006F0009F5FC9CF85EEE0CF80E0F1CF82E0EFCF02
:1007000083E0EDCF0895E4EDF2E0148E138E168EA3
:10071000158E10A2178E12A211A214A213A216A255
:1007200015A210A617A212A611A6089585ED809312
:10073000BC008091BC0084FDFCCF1092060208959D
:100740002091AA01260F3327331F21323105ECF403
:1007500020910602FC0190E080E0243069F082E004
:100760000895A091AA012191AC0148575E4FA40FB2
:10077000B52FB11D2C930196861798F38091AA018D
:10078000680F6093AA0180E0089581E008950895BC
:100790000895E091870180918601E81730F4F0E038
:1007A000EA59FE4F808190E008958FEF9FEF089502
:1007B00090918701809186012FEF3FEF981748F4C1
:1007C000E92FF0E0EA59FE4F208130E09F5F9093DF
:1007D0008701C90108958091860190918701891B45
:1007E000990B0895CF92DF92EF92FF920F931F9390
:1007F000CF93DF937C01CB018A0120910702222352
:1008000089F0EB016B01C40ED51ECC15DD0569F036
:100810006991D701ED91FC910190F081E02DC70124
:100820000995F3CF642F0E94A003C801DF91CF91F7
:100830001F910F91FF90EF90DF90CF900895CF938D
:10084000DF931F92CDB7DEB7698320910702222381
:10085000F9F020912A02203258F021E030E0FC012A
:100860003383228390E080E00F90DF91CF91089551
:1008700080910802E82FF0E0E75FFD4F99819083B7
:100880008F5F8093080280932A0281E090E0ECCF92
:1008900061E0CE0101960E94A003F7CFCF93DF93D2
:1008A0008091FF0291E090930702809329021092B9
:1008B000080210922A0260E08BE292E00E941F047C
:1008C000C4EDD2E06B8D8BE292E00E941F046C8D30
:1008D0008BE292E00E941F04229682E0C43ED80779
:1008E00089F7DF91CF910C94250390E0FC01E4554A
:1008F000FA4F2491FC01E054FA4F3491FC01E2528A
:10090000FA4FE491EE23C9F0222339F0233001F1AC
:10091000A8F4213019F1223029F1F0E0EE0FFF1F89
:10092000EC52FA4FA591B4918FB7F894EC91611104
:1009300026C030953E233C938FBF08952730A9F001
:100940002830C9F0243049F7809180008F7D03C0A2
:10095000809180008F7780938000DFCF84B58F7780
:1009600084BDDBCF84B58F7DFBCF8091B0008F77C6
:100970008093B000D2CF8091B0008F7DF9CF3E2B15
:10098000DACFCF93DF9390E0FC01E054FA4F24914B
:1009900082529A4FFC0184918823D1F090E0880F15
:1009A000991FFC01EE55FA4FA591B491FC01EC5250
:1009B000FA4FC591D49161110EC09FB7F8948C91F4
:1009C000E22FE0958E238C932881E223E8839FBF5A
:1009D000DF91CF9108958FB7F894EC91E22BEC93CF
:1009E0008FBFF6CFCF92DF92EF92FF92CF936B0142
:1009F00090910001891749F09F3F09F485C0CF917C
:100A0000FF90EF90DF90CF900895E2EFF5E0C49172
:100A1000C7FDF5CF61E00E94C104F12CE12CCC238D
:100A2000D9F0960150E040E0C23009F0E8C07A0108
:100A300060E970ED83E090E00E940917BA01A90116
:100A4000415051096109710983E04F3F510561052A
:100A5000710509F00CF419C168E478EE81E090E0CA
:100A6000A70196010E940917BA01A9014150510935
:100A700061097109CC2309F4FEC0C23009F0BDC080
:100A80004F3F51056105710509F00CF4FDC064E2AA
:100A900074EF80E090E0A70196010E940917BA0167
:100AA000A901415051096109710985E04F3F510584
:100AB0006105710509F008F4E8C062E17AE780E0B9
:100AC00090E0A70196010E940917BA01A9014150BF
:100AD000510961097109C111E5C094E085B5887FAC
:100AE000892B85BD47BD8FEF9FEFDC018093DC0133
:100AF0009093DD01A093DE01B093DF0180916E0041
:100B0000826080936E007BCF80930001E2EFF5E07E
:100B1000C491CF3F09F473CFC13039F148F0C230EE
:100B200009F445C0C7FD6BCF61E00E94C10479CFD5
:100B300014BC15BC94B5926094BD95B5916095BDFB
:100B4000282F30E0F901E252FA4FE491F0E0EE0F85
:100B5000FF1FEC52FA4F45915491F901E054FA4FBE
:100B6000E491E093D301C0E055CF10928000109241
:100B70008100909181009860909381009091810014
:100B8000916090938100282F30E0F901E252FA4FF2
:100B9000E491F0E0EE0FFF1FEC52FA4F45915491B3
:100BA000F901E054FA4FE491E093D20133CF10926F
:100BB000B0001092B1009091B00092609093B0009C
:100BC0009091B10091609093B100282F30E0F9012D
:100BD000E252FA4FE491F0E0EE0FFF1FEC52FA4FB1
:100BE000459154915093D1014093D001F901E054C3
:100BF000FA4FE491E093CF010DCF84E057CF60E04E
:100C000072E18AE790E00E940917BA01A9014150F8
:100C1000510961097109C130F1F580918100887F26
:100C200081608093810050938900409388008FEF0A
:100C30009FEFDC018093D8019093D901A093DA0152
:100C4000B093DB0180916F00826080936F00D7CEFC
:100C50004093B3008FEF9FEFDC018093D40190931A
:100C6000D501A093D601B093D70180917000826026
:100C700080937000C4CE93E04F3F5105610571052C
:100C800011F00CF01ACF2ACF84E09091B100987F38
:100C9000892B8093B100C13031F2C230C9F2C11149
:100CA000AECE20CF86E0F1CF3FB7F89480916201BD
:100CB00090916301A0916401B091650126B5A89B54
:100CC00005C02F3F19F00196A11DB11D3FBFBA2FDE
:100CD000A92F982F8827BC01CD01620F711D811D9E
:100CE000911D42E0660F771F881F991F4A95D1F723
:100CF00008958F929F92AF92BF92CF92DF92EF9220
:100D0000FF924B015C010E9454066B017C010E9422
:100D100054066C197D098E099F09683E7340810550
:100D20009105A8F321E0821A9108A108B10888EE84
:100D3000C80E83E0D81EE11CF11C81149104A104AB
:100D4000B10429F7FF90EF90DF90CF90BF90AF9064
:100D50009F908F9008959091000189130BC0E2EF4E
:100D6000F5E0E4919FEF90930001E13049F028F025
:100D7000E23061F060E00C94750410926E00FACFDE
:100D800090916F009D7F90936F00F4CF90917000D1
:100D90009D7F9093700091E09093B0009091B1008E
:100DA000987F94609093B1001092B300E3CFAF921C
:100DB000BF92CF92DF92EF92FF920F931F93CF9348
:100DC000DF936C017B018B01040F151FEB015E01AA
:100DD000AE18BF08C017D10759F06991D601ED913F
:100DE000FC910190F081E02DC6010995892B79F7DE
:100DF000C501DF91CF911F910F91FF90EF90DF9090
:100E0000CF90BF90AF900895FC01538D448D252F56
:100E100030E0842F90E0821B930B541710F0CF9694
:100E2000089501970895FC01918D828D981761F0C6
:100E3000A28DAE0FBF2FB11D5D968C91928D9F5FDD
:100E40009F73928F90E008958FEF9FEF0895FC01BC
:100E5000918D828D981731F0828DE80FF11D858D6F
:100E600090E008958FEF9FEF0895FC01918D228D02
:100E7000892F90E0805C9F4F821B91098F73992787
:100E8000089587E392E00E94350721E0892B09F459
:100E900020E0822F089580E090E0892B29F00E94C5
:100EA000410781110C9400000895FC01A48DA80F46
:100EB000B92FB11DA35ABF4F2C91848D90E001969C
:100EC0008F739927848FA689B7892C93A089B189BC
:100ED0008C91837080648C93938D848D981306C05D
:100EE0000288F389E02D80818F7D80830895EF92C1
:100EF000FF920F931F93CF93DF93EC0181E0888FD4
:100F00009B8D8C8D98131AC0E889F989808185FFA3
:100F100015C09FB7F894EE89FF896083E889F98945
:100F200080818370806480839FBF81E090E0DF9147
:100F3000CF911F910F91FF90EF900895F62E0B8D9A
:100F400010E00F5F1F4F0F731127E02E8C8D8E1155
:100F50000CC00FB607FCFACFE889F989808185FFBC
:100F6000F5CFCE010E945507F1CFEB8DEC0FFD2F91
:100F7000F11DE35AFF4FF0829FB7F8940B8FEA8977
:100F8000FB8980818062CFCFCF93DF93EC01888D86
:100F90008823B9F0AA89BB89E889F9898C9185FDF4
:100FA00003C0808186FD0DC00FB607FCF7CF8C9182
:100FB00085FFF2CF808185FFEDCFCE010E945507DE
:100FC000E9CFDF91CF9108954830510580F5683021
:100FD000710568F5DC015696EC91E23049F1E33099
:100FE00091F1E13031F4E7E0F0E0E41BF50BAB0107
:100FF000BF01695F7F4F440F551FDC01A40FB51F70
:101000005B968D919C915C9767707727E1E0F0E0AB
:10101000AF0102C0440F551F6A95E2F7BA01232BB6
:10102000C9F0682B792B5C967C936E935B9708953F
:10103000E7E0F0E0DF01A61BB70BBD01DF01A41B59
:10104000B50BAD01D6CFE7E0F0E0E61BF70BBA0138
:10105000AF01CFCF6095709568237923E4CF0895D1
:10106000FC016370668B84819581268137816130B4
:1010700039F0633029F0918780873387228708957C
:10108000318720879387828708952F923F924F92CE
:101090005F926F927F928F929F92AF92BF92CF9208
:1010A000DF92EF92FF920F931F93CF93DF93CDB711
:1010B000DEB76A970FB6F894DEBF0FBECDBF9A8F2A
:1010C000898F7A8369834A01D22E18870F8337016B
:1010D000BC2CDC0159962D913C915A972115310574
:1010E00009F015C118968D919C9119976817790789
:1010F0000CF0D7C11A968D919C91481759070CF0A6
:10110000D0C14C2C512CB6E0CB9E600D711D11242A
:101110007C876B87161617060CF0C3C1EA2DF0E02A
:10112000FA87E98793E0EE0FFF1F9A95E1F7F88BB6
:10113000EF87CF01840F951F181619060CF0B1C167
:10114000A98DBA8D58968C91811104C0BFEABD1546
:1011500008F4D394A98DBA8DED91FC911197028476
:10116000F385E02DCD010995B5E0DB9EC00111248A
:10117000E981FA81FC83EB83312C212C9C012857D7
:101180003F4F388F2F8B4A2D50E05E8B4D8BEF8970
:10119000F88DE20DF31D44919E828D82D12CC12CDD
:1011A00069817A81620D731D7A8B698B842F90E03F
:1011B0009C8B8B8BE98DFA8DA081B18140FF82C021
:1011C000F1E0BF126FC0AF126DC01C96ED91FC91A3
:1011D0002F813885A4014C0D5D1D69897A89898D1F
:1011E0009A8D0995EB89FC89F595E7954E2F5FEF70
:1011F000C51AD50A6D817E818D899E89680F791FF8
:101200007E836D8398E0C916D10481F6AFEF2A1A68
:101210003A0AEB81FC81E40DF51DFC83EB83F5E0DC
:101220002F16310409F0B3CF2F81388526153705E5
:10123000B9F0A98DBA8DED91FC91B1E0BB1257C008
:10124000AB1255C069817A816B5F7F4F0088F1894D
:10125000E02D830128E030E0A401898D9A8D099565
:10126000A98DBA8DED91FC9111970688F789E02D33
:10127000CD016A960FB6F894DEBF0FBECDBFDF91E9
:10128000CF911F910F91FF90EF90DF90CF90BF9083
:10129000AF909F908F907F906F905F904F903F9016
:1012A0002F9009941E96ED91FC91EF80F8840985AA
:1012B0001A8592014D815E816B817C81898D9A8D29
:1012C000099590CF2F8138852615370509F48ACFE7
:1012D00031E0B31207C0A31205C01C96ED91FC913A
:1012E000930178CF1E96ED91FC917301E0CF6B8551
:1012F0007C85641975090684F785E02D73010F85D7
:1013000018899201A401898D9A8D0995A9CFF901B7
:1013100034969491329745915491D91AB7E0DB9E57
:10132000400D511D1124F901259134913C8B2B8BDB
:10133000FA0125903490FA013296749031963491E6
:10134000398B329664903196449041E04C1518F0F8
:101350004A1508F07FC0662D062C000C770B7C83A5
:101360006B83842D042C000C990B9E838D83A98D97
:10137000BA8DED91FC9111970284F385E02DCD019A
:101380000995512CD12CC12CEA2DF0E0FA87E98780
:101390002B2D30E03C872B87A401440D511D47FCC9
:1013A0005A95588F4F8B69817A81660D711D67FC44
:1013B0007A957E876D877989C71608F051CF2C2DD5
:1013C00030E04D815E81420F531FA985BA854A9F47
:1013D000C0014B9F900D5A9F900D1124FC01E80D08
:1013E000F91DF88BEF87852D612C4F89588D420FA1
:1013F000531F5E8B4D8B671408F050C044244394F8
:10140000480E877041F4C1010196EB89FC89E20D19
:10141000F31DD4901C01D7FE19C0A98DBA8DED9192
:10142000FC91662D70E0B1E0BB1219C0AB1217C081
:101430002D853E85620F731F0484F585E02D2F8175
:1014400038854D895E89898D9A8D0995DD0C639467
:10145000842DD1CF1E821D821C821B8288CF4B819E
:101460005C81640F751FAB85BC856A9FC0016B9F53
:10147000900D7A9F900D112469817A81680F791FF0
:101480000684F785E02DEF80F88409851A859D0193
:101490004F855889898D9A8D0995D8CF570CC3945B
:1014A0008ACF6A960FB6F894DEBF0FBECDBFDF912C
:1014B000CF911F910F91FF90EF90DF90CF90BF9051
:1014C000AF909F908F907F906F905F904F903F90E4
:1014D0002F9008958F929F92AF92CF92EF92FF92AA
:1014E0000F931F93CF93DF93EC01262F898D9A8D55
:1014F000009709F051C06A30D1F41D861C868D8991
:1015000048E0849F900111248E859F85820F931F50
:101510009F878E8781E090E0DF91CF911F910F919F
:10152000FF90EF90CF90AF909F908F9008956D3087
:1015300089F3CC88AD888F898823C1F08C859D85FF
:1015400036E0C39E800D911D1124488559854817AA
:10155000590764F44E855F851D861C8638E0A39E7E
:10156000C0011124840F951F9F878E87EA88FB880E
:10157000088919894E855F856C857D85CE010E941D
:1015800045082C898C859D8546E0249F800D911D02
:1015900011249D878C87BECF6A3069F41D861C8616
:1015A000FC013696E4912D898E859F85E29F800D02
:1015B000911D1124ADCF6D3009F4ACCFFC013496F0
:1015C0003491631708F4A6CF3196E491E61708F436
:1015D000A1CFFC01329685909490462F431B342F67
:1015E00047E0349F800C911C1124F4013296349111
:1015F0003196E4913323A9F1EE2399F1CC88F401DB
:101600003596E491AD884F89442301F10E2E000CEC
:10161000FF0BE30FF11DCE9EA001CF9E500D1124B4
:101620006C857D85460F571F68857985641775071A
:101630006CF44E855F851D861C86FC013696E49110
:10164000AE9E400D511D11245F874E87EA88FB88AE
:10165000088919894E855F856C857D85CE010E943C
:101660004508F4013496E4912C898C859D85E29F90
:10167000800D911D11248DCF6F927F928F929F923A
:10168000AF92BF92CF92DF92EF92FF920F931F9390
:10169000CF93DF93EC016B015A0139014801E881D6
:1016A000F9810284F385E02D0995E881F9810288AA
:1016B000F389E02D87019301A501B601CE010995BB
:1016C000A501480D591D41505109E881F981028851
:1016D000F389E02D9301B601CE010995E881F981E6
:1016E0000088F189E02D9401A501B601CE0109958C
:1016F000C60CD71CB60161507109E881F9810088D8
:10170000F189E02D9401A501CE010995E881F981C7
:101710000688F789E02DCE01DF91CF911F910F91BF
:10172000FF90EF90DF90CF90BF90AF909F908F9001
:101730007F906F9009946F927F928F929F92AF9259
:10174000BF92CF92DF92EF92FF920F931F93CF93AE
:10175000DF935C01EB016A01490138018701DC017B
:10176000ED91FC916217730719F5641675062CF05C
:10177000962D872D3A01C92ED82E960126193709A4
:101780002F5F3F4F048CF58DE02DA301BE01C501F5
:101790000995DF91CF911F910F91FF90EF90DF900E
:1017A000CF90BF90AF909F908F907F906F90089553
:1017B0004615570591F42617370724F0892D4B015C
:1017C000C22FD82F9E01281939092F5F3F4F068C51
:1017D000F78DE02DA601B401DACF0284F385E02D68
:1017E0000995D501ED91FC910488F589E02D8301DF
:1017F0009401A601BE01C5010995D501ED91FC91A9
:101800000688F789E02DC501DF91CF911F910F91D7
:10181000FF90EF90DF90CF90BF90AF909F908F9010
:101820007F906F900994EF92FF920F931F93DC01CA
:101830001A960D911C911B9718962D913C91199712
:10184000ED91FC9100A0F1A1E02D7B0150E040E082
:1018500070E060E009951F910F91FF90EF9008955F
:101860004F925F926F927F928F929F92AF92BF92B0
:10187000CF92DF92EF92FF920F931F93CF93DF935C
:101880006C012B015A0139014801DC01ED91FC91F9
:101890000284F385E02D0995E201640C751CD601E4
:1018A000ED91FC91C615D7055CF40088F189E02D17
:1018B00087019401A501BE01C60109952196EFCFCC
:1018C0000688F789E02DC601DF91CF911F910F9116
:1018D000FF90EF90DF90CF90BF90AF909F908F9050
:1018E0007F906F905F904F9009948F929F92AF92EC
:1018F000BF92CF92DF92EF92FF920F931F93CF93FD
:10190000DF93EC015B014A016901E881F9810284FE
:10191000F385E02D099595012C0D3D1D21503109D0
:10192000E881F9810488F589E02D78018401A4011A
:10193000B501CE010995E881F9810688F789E02D86
:10194000CE01DF91CF911F910F91FF90EF90DF902B
:10195000CF90BF90AF909F908F9009948F929F925D
:10196000AF92BF92CF92DF92EF92FF920F931F93AD
:10197000CF93DF93EC015B014A0169017801E881B3
:10198000F9810284F385E02D0995C80CD91C8601E4
:1019900001501109E881F9810488F589E02D95014C
:1019A000A401B501CE010995E881F9810688F7897E
:1019B000E02DCE01DF91CF911F910F91FF90EF901D
:1019C000DF90CF90BF90AF909F908F900994EF924F
:1019D000FF920F931F93DC01ED91FC9100A0F1A108
:1019E000E02D09951F910F91FF90EF9008950F93AF
:1019F0001F93DC01ED91FC91068CF78DE02D09958C
:101A00001F910F9108950F931F93DC01ED91FC91AD
:101A1000048CF58DE02D09951F910F910895DC013F
:101A2000ED91FC910084F185E02D0994CF92DF9235
:101A3000FF920F931F93CF93DF936C01F12C10E073
:101A400000E0D0E0C0E0FF0C209711F4F601F49024
:101A5000F7FE08C021E030E0A801BE0184ED92E06D
:101A60000E940F0D2196C830D10569F70F5F1F4FF7
:101A7000FFEFCF1ADF0A0830110519F7DF91CF9178
:101A80001F910F91FF90DF90CF9008952F923F927A
:101A90004F925F926F927F928F929F92AF92BF927E
:101AA000CF92DF92EF92FF920F931F93CF93DF932A
:101AB00000D000D000D0CDB7DEB73C016A013E8334
:101AC0002D83FC82EB825801A41AB50AB7FE03C02D
:101AD000B194A194B1088D809E80861A970A97FED2
:101AE00003C09194819491088A149B045CF0902F18
:101AF000812F0D811E819D838E839C2D8D2D6B01E9
:101B0000692F782F0C151D055CF09D818E817E83D9
:101B10006D83692F782F902F812F8601C92ED82EA3
:101B20001601201A310A2B012D813E81421A530AD7
:101B300057FE03C0519441945108710137FE03C010
:101B40003FEFE31AF30AF594E7948D819E8186179F
:101B500097075CF5A1E0B0E0BA83A983C016D1066F
:101B60004CF1D301ED91FC910484F585E02D2B819E
:101B70003C81A8016D817E818A149B041CF04D81FB
:101B80005E81B801C3010995E418F508F7FE0AC0A3
:101B90002D813E8189819A81280F391F3E832D83B3
:101BA000E20CF31C0F5F1F4FD9CF2FEF3FEF3A83AB
:101BB0002983D4CF26960FB6F894DEBF0FBECDBFD3
:101BC000DF91CF911F910F91FF90EF90DF90CF9019
:101BD000BF90AF909F908F907F906F905F904F904D
:101BE0003F902F900895089590E080E008950E941E
:101BF000830380E890E00E94160D0E944E0464E684
:101C000070E080E090E00E9479060E94830388E7FC
:101C100090E00E94160D0E944E0464E670E080E0A1
:101C200090E00E9479060E94830380E790E00E9482
:101C3000160D0E944E0464E670E080E090E00E9481
:101C400079060E94830388E690E00E94160D0E94A8
:101C50004E0464E670E080E090E00E9479060E9405
:101C6000830380E790E00E94160D0E944E0464E614
:101C700070E080E090E00E9479060E94830388E78C
:101C800090E00E94160D0E944E0464E670E080E031
:101C900090E00E9479060E94830380E890E00E9411
:101CA000160D0E944E0464E670E080E090E00E9411
:101CB0007906089560E08AE00E94750461E08BE097
:101CC0000E94750460E08CE00E94750461E088E089
:101CD0000E947504089561E08AE00E94750460E046
:101CE0008BE00E94750461E08CE00E94750460E066
:101CF00088E00E94750408958F929F92AF92BF92E0
:101D00000F931F93CF93DF93CDB7DEB7A1970FB695
:101D1000F894DEBF0FBECDBF19A2423008F44AE0EE
:101D20008E010F5D1F4F842E912CB12CA12CA5018B
:101D300094010E94E716E62FB901CA01EA3044F582
:101D4000E05DD801EE938D01232B242B252B79F711
:101D500090E080E0109769F0FD0101900020E9F724
:101D60003197AF014A1B5B0BBD0187E392E00E94F4
:101D7000D706A1960FB6F894DEBF0FBECDBFDF9198
:101D8000CF911F910F91BF90AF909F908F9008952A
:101D9000E95CD7CF0E942E171F920F920FB60F92B9
:101DA00011242F933F934F935F936F937F938F9360
:101DB0009F93AF93BF93EF93FF938091B900887F78
:101DC000803609F44AC0F0F5883209F4A7C018F546
:101DD000803109F49BC0B8F4882309F4F9C0883035
:101DE00009F494C0FF91EF91BF91AF919F918F91B2
:101DF0007F916F915F914F913F912F910F900FBE07
:101E00000F901F901895883109F488C0803251F7DF
:101E10008093040214C0803409F49DC040F48033E0
:101E2000B9F38833F9F68093040285ECB0C08035AD
:101E300009F485C0883509F496C0883499F60E9463
:101E40009603D0CF883909F48CC038F5883729F04B
:101E500050F4883611F0803729F683E0809306022B
:101E60001092CE0157C0883809F47BC0803919F030
:101E7000803809F0B7CF8091CE01803208F071C070
:101E8000E091CE0181E08E0F8093CE018091BB0066
:101E9000F0E0E255FE4F80833DC0803B39F0E0F436
:101EA000803A09F479C0883A09F09CCF84E08093A5
:101EB00006021092AB011092AA01E091A801F091E4
:101EC000A90109958091AA0181110FC081E0809339
:101ED000AA011092880109C0803C09F4A6CF883C71
:101EE00009F4A3CF883B09F07DCFE091AB0181E0FD
:101EF0008E0F8093AB01F0E0E857FE4F8081809316
:101F0000BB009091AB018091AA0129C08091E101B1
:101F10008093BB0085EC8093BC0064CF909103025A
:101F200080910202981758F5E091030281E08E0F2C
:101F300080930302F0E0EE51FE4F8081E9CFE09103
:101F4000030281E08E0F809303028091BB00F0E0DA
:101F5000EE51FE4F80839091030280910202981708
:101F6000C8F285E8D8CFE091030281E08E0F80931C
:101F700003028091BB00F0E0EE51FE4F8083809120
:101F8000050281115CCF81E08093E00184EA8093B7
:101F9000BC001092060226CF85EC8093BC00109204
:101FA00006028091CE01803230F4E091CE01F0E063
:101FB000E255FE4F10826091CE0170E0E091AC01DD
:101FC000F091AD018EEA91E009951092CE010ACF11
:101FD0001092040234CF1F920F920FB60F92112469
:101FE0002F933F938F939F93AF93BF9380915E0105
:101FF00090915F01A0916001B091610130915D010C
:1020000023E0230F2D3758F50196A11DB11D209314
:102010005D0180935E0190935F01A0936001B09396
:1020200061018091620190916301A0916401B0917E
:1020300065010196A11DB11D80936201909363011A
:10204000A0936401B0936501BF91AF919F918F916F
:102050003F912F910F900FBE0F901F90189526E87B
:10206000230F0296A11DB11DD2CF1F920F920FB662
:102070000F9211242F933F934F935F936F937F930E
:102080008F939F93AF93BF93EF93FF938091D4016E
:102090009091D501A091D601B091D701892B8A2BBF
:1020A0008B2BD1F19091CF01E091D001F091D10132
:1020B0008081892780838091D4019091D501A0915E
:1020C000D601B091D701181619061A061B069CF402
:1020D0008091D4019091D501A091D601B091D70102
:1020E0000197A109B1098093D4019093D501A093E0
:1020F000D601B093D701FF91EF91BF91AF919F911E
:102100008F917F916F915F914F913F912F910F90A0
:102110000FBE0F901F901895809100010E94AB0692
:10212000EACF1F920F920FB60F9211242F933F9375
:102130004F935F936F937F938F939F93AF93BF93CF
:10214000EF93FF9387E392E00E945507FF91EF9191
:10215000BF91AF919F918F917F916F915F914F91BF
:102160003F912F910F900FBE0F901F9018951F92C7
:102170000F920FB60F9211242F938F939F93EF938B
:10218000FF93E0914702F09148028081E0914D0277
:10219000F0914E0282FD1BC09081809150028F5FB2
:1021A0008F7320915102821741F0E0915002F0E0CC
:1021B000E95CFD4F958F80935002FF91EF919F91C5
:1021C0008F912F910F900FBE0F901F9018958081C7
:1021D000F4CFCF92DF92EF92FF920F931F93E82FED
:1021E000F92F05C0015011092109310961F19081D0
:1021F00096239417B9F305C001501109210931093B
:1022000011F1908196239413F7CFC12CD12CE12C9E
:10221000F12C0AC08FEFC81AD80AE80AF80A0C1580
:102220001D052E053F0579F080818623841791F3E3
:102230006C2D7D2D8E2D9F2D1F910F91FF90EF9076
:10224000DF90CF90089560E070E080E090E01F9113
:102250000F91FF90EF90DF90CF900895EBE2F2E0C6
:102260001382128288EE93E0A0E0B0E0848395832D
:10227000A683B78325E031E031832083E7E3F2E0F2
:102280001382128284839583A683B78387E191E0CA
:102290009183808385EC90E09587848784EC90E03F
:1022A0009787868780EC90E0918B808B81EC90E023
:1022B000938B828B82EC90E0958B848B86EC90E004
:1022C000978B868B118E128E138E148EE4EDF2E0B6
:1022D0001382128288E090E09583848397838683BB
:1022E0009187808793878287168A1586148617863A
:1022F000168681E0858B848B2FEF3FEF338B228B0B
:10230000318B208B878B108E128E118E89E291E09B
:10231000918380830895789484B5826084BD84B568
:10232000816084BD85B5826085BD85B5816085BDD0
:1023300080916E00816080936E0010928100809188
:102340008100826080938100809181008160809310
:102350008100809180008160809380008091B10035
:1023600084608093B1008091B00081608093B00060
:1023700080917A00846080937A0080917A008260F4
:1023800080937A0080917A00816080937A008091B6
:102390007A00806880937A001092C100E091470231
:1023A000F091480282E08083E0914302F091440280
:1023B0001082E0914502F09146028FEC80831092EA
:1023C0004F02E0914B02F0914C0286E08083E09155
:1023D0004902F0914A02808180618083E091490244
:1023E000F0914A02808188608083E0914902F091F7
:1023F0004A02808180688083E0914902F0914A021C
:1024000080818F7D808361E089E00E94C10461E06A
:1024100086E00E94C10460E082E00E94C10461E0A5
:102420008AE00E94C10461E08CE00E94C10461E086
:102430008BE00E94C10461E088E00E94C10480E753
:102440008093FF0210928701109286011092080279
:1024500010922A0210920602C1E0C0930502109267
:10246000E00161E082E10E94750461E083E10E9485
:1024700075048091B9008E7F8093B9008091B90076
:102480008D7F8093B90088E48093B80085E48093C1
:10249000BC0087EC93E09093A9018093A80188EC9D
:1024A00093E09093AD018093AC018091FF02C093C3
:1024B0000702809329021092080210922A0261E218
:1024C0008BE292E00E941F040E9425038091FF028C
:1024D000C0930702809329021092080210922A02E8
:1024E00061E88BE292E00E941F040E942503809124
:1024F000FF02C093070280932902109208021092F3
:102500002A026FEE8BE292E00E941F040E942503D4
:10251000C3E0D0E093E2A92EB12C20EE222E25E0DC
:10252000322E3AE3432E512C612C712C40E0842E44
:1025300040E0942E61E086E00E94C10460E084E007
:102540000E94C10460E086E00E947504CE010197FC
:10255000F1F761E086E00E947504C5010197F1F78B
:1025600060E086E00E94750460E082E00E94C104A1
:10257000E2ECF5E06491F1018491E82FF0E0EE0FD8
:10258000FF1FE857FA4F8591949100E412E42FE081
:1025900030E0462F0E94E910611571058105910513
:1025A00029F06F5F7F4F8F4F9F4F9F7070935C013B
:1025B00060935B01072E000C880B990BA30192011D
:1025C0000E94091730935A01209359012B3031058D
:1025D0000CF0FAC381E08093580121503109233671
:1025E000310508F039C180915801882309F4C2C02F
:1025F000109255011092540180915601909157010B
:1026000001968430910509F45DC190935701809340
:1026100056018091560190915701009709F057C1DA
:102620000E945A0E60ED70E089E00E94F20462ECB4
:1026300071E080E090E00E94790667E371E089E054
:102640000E94F20468EC70E080E090E00E9479065D
:102650006FE971E089E00E94F20461EE70E080E0D1
:1026600090E00E94790660ED70E089E00E94F2043B
:1026700068EC70E080E090E00E94790667E371E02A
:1026800089E00E94F20468EC70E080E090E00E9433
:1026900079066FE971E089E00E94F2046CE271E072
:1026A00080E090E00E94790689E00E94AB0662E338
:1026B00070E080E090E00E94790660ED70E089E0D3
:1026C0000E94F20462EC71E080E090E00E947906E2
:1026D00067E371E089E00E94F20468EC70E080E05A
:1026E00090E00E9479066DE571E089E00E94F204B5
:1026F00061EE70E080E090E00E94790660ED70E0AD
:1027000089E00E94F20468EC70E080E090E00E94B2
:10271000790667E371E089E00E94F20468EC70E0FA
:1027200080E090E00E9479066DE571E089E00E940A
:10273000F2046CE271E080E090E00E94790689E0AA
:102740000E94AB0662E370E080E090E00E947906B0
:102750000E945A0E0E94830382E995E00E94160DA2
:102760000E944E0468EB7BE080E090E00E947906D6
:102770000E94F70D8091580181116EC0109257018F
:102780001092560180915401909155010196843028
:10279000910509F47FC29093550180935401809173
:1027A000540190915501009709F079C20E946B0E77
:1027B00063E972E089E00E94F2046EEE72E080E06C
:1027C00090E00E9479066CED73E089E00E94F204CB
:1027D0006EEE72E080E090E00E94790665E574E0BC
:1027E00089E00E94F2046EEE72E080E090E00E94C8
:1027F000790663E972E089E00E94F2046EEE72E00D
:1028000080E090E00E94790664EE72E089E00E9428
:10281000F2046CE271E080E090E00E94790663E9E6
:1028200072E089E00E94F2046EEE72E080E090E0D7
:102830000E9479060E946B0E0E9483038AE995E04C
:102840000E94160D0E944E046CE271E080E090E060
:102850000E9479060E94F70DC0905901D0905A014C
:102860000D2C000CEE08FF084AE0C701B601F7FE88
:102870000DC06DE287E392E00E9477076627772715
:10288000CB016C197D098E099F094AE00E947C0EDC
:1028900042E050E061E571E087E392E00E94D706F4
:1028A00064E670E080E090E00E9479068114910473
:1028B00009F440CE0E944107882309F43BCE0E94D0
:1028C000000038CE1092570110925601A2CE8130EE
:1028D000910509F097C00E945A0E60ED70E089E002
:1028E0000E94F20462EC71E080E090E00E947906C0
:1028F00067E371E089E00E94F20468EC70E080E038
:1029000090E00E9479066FE971E089E00E94F2048C
:1029100061EE70E080E090E00E94790660ED70E08A
:1029200089E00E94F20468EC70E080E090E00E9490
:10293000790667E371E089E00E94F20468EC70E0D8
:1029400080E090E00E9479066FE971E089E00E94E2
:10295000F2046CE271E080E090E00E94790689E088
:102960000E94AB0662E370E080E090E00E9479068E
:1029700060ED70E089E00E94F20462EC71E080E0BA
:1029800090E00E94790667E371E089E00E94F2041A
:1029900068EC70E080E090E00E9479066DE571E0FF
:1029A00089E00E94F20461EE70E080E090E00E9415
:1029B000790660ED70E089E00E94F20468EC70E056
:1029C00080E090E00E94790667E371E089E00E9470
:1029D000F20468EC70E080E090E00E9479066DE51A
:1029E00071E089E00E94F2046EE571E080E090E021
:1029F0000E94790689E00E94AB066CE271E080E0FB
:102A000090E0A4CE8230910509F0A0C00E945A0E39
:102A10006FE373E089E00E94F20468EC70E080E00C
:102A200090E00E94790664EA73E089E00E94F20473
:102A300068EC70E080E090E00E94790667E174E065
:102A400089E00E94F20468EC70E080E090E00E946F
:102A5000790689E00E94AB0668EC70E080E090E0C7
:102A60000E94790667E174E089E00E94F20468EC54
:102A700070E080E090E00E94790664EA73E089E00B
:102A80000E94F20468EC70E080E090E00E94790619
:102A90006FE373E089E00E94F2046EE571E080E08C
:102AA00090E00E94790664EA73E089E00E94F204F3
:102AB0006DE072E080E090E00E9479066FE373E0E1
:102AC00089E00E94F20468E572E080E090E00E94F4
:102AD000790689E00E94AB0668EC70E080E090E047
:102AE0000E9479066FE373E089E00E94F20468ECCB
:102AF00070E080E090E00E94790664EA73E089E08B
:102B00000E94F20468EC70E080E090E00E94790698
:102B100067E174E089E00E94F20468EC70E080E014
:102B200090E00E94790689E00E94AB0668EC70E0B4
:102B300080E090E00E94790667E174E089E00E94FD
:102B4000F20468EE73E080E090E052CF83309105AC
:102B500009F095C00E945A0E6FE373E089E00E946D
:102B6000F20468EC70E080E090E00E94790664EA8C
:102B700073E089E00E94F20468EC70E080E090E08D
:102B80000E94790667E174E089E00E94F20468EC33
:102B900070E080E090E00E94790689E00E94AB0638
:102BA00068EC70E080E090E00E94790667E174E0F4
:102BB00089E00E94F20468EC70E080E090E00E94FE
:102BC000790664EA73E089E00E94F20468EC70E040
:102BD00080E090E00E9479066FE373E089E00E9454
:102BE000F2046EE571E080E090E00E94790664EA0C
:102BF00073E089E00E94F2046DE072E080E090E012
:102C00000E9479066FE373E089E00E94F20468E5B0
:102C100072E080E090E00E94790689E00E94AB06B5
:102C200068EC70E080E090E00E9479066FE373E06A
:102C300089E00E94F20464EF71E080E090E00E947D
:102C4000790664EA73E089E00E94F20466E970E0C4
:102C500080E090E00E94790689E00E94AB0664E67D
:102C600070E080E090E00E94790664EA73E089E019
:102C70000E94F2046BE673E080E090E0B9CE049726
:102C800009F066CD89E00E94AB0660ED77E080E058
:102C900090E05CCD109255011092540180CD8130AE
:102CA000910509F03FC00E946B0E6AE272E089E074
:102CB0000E94F2046AEF70E080E090E00E947906E2
:102CC00089E00E94AB0664E670E080E090E00E943C
:102CD00079066AE272E089E00E94F2046AEF70E02D
:102CE00080E090E00E9479066BE472E089E00E9447
:102CF000F20460E971E080E090E00E94790663E907
:102D000072E089E00E94F2046EEE72E080E090E0F2
:102D10000E94790689E00E94AB0664EF71E080E0D2
:102D200090E086CD8230910509F043C00E946B0E81
:102D300063E972E089E00E94F2046EEE72E080E0E6
:102D400090E00E9479066CED73E089E00E94F20445
:102D50006AE872E080E090E00E94790665E574E040
:102D600089E00E94F20464EF71E080E090E00E944C
:102D7000790667E974E089E00E94F2046AEF70E086
:102D800080E090E00E94790665E574E089E00E94A9
:102D9000F20464EF71E080E090E00E9479066BE459
:102DA00072E089E00E94F20468EE73E080E090E057
:102DB0003FCD039709F03ECD89E00E94AB0660ED60
:102DC00077E080E090E034CD1092580106CCA1E28B
:102DD0001A2EAA1BBB1BFD010DC0AA1FBB1FEE1F95
:102DE000FF1FA217B307E407F50720F0A21BB30BE0
:102DF000E40BF50B661F771F881F991F1A9469F75C
:102E000060957095809590959B01AC01BD01CF01B7
:102E10000895052E97FB1EF400940E94201757FD7D
:102E200007D00E94E71607FC03D04EF40C9420173D
:102E300050954095309521953F4F4F4F5F4F0895E6
:102E400090958095709561957F4F8F4F9F4F089516
:102E5000EE0FFF1F0590F491E02D099481E090E0C2
:0A2E6000F8940C943317F894FFCF98
:102E6A00FF000000001F04F203F40D8203EB03D8F5
:102E7A0003C903000000007707D7060407C4073513
:102E8A000713072707000000006A0AD706F40DF3A4
:102E9A000DE40782030F0DE70C030DF70C460D82B4
:102EAA000330082F08AE0C750C300C130C9B0B3C2E
:042EBA000B0D0A00F2
:00000001FF
