:100000000C94EA020C9412030C9412030C94120345
:100010000C9412030C9412030C9412030C94B70E5C
:100020000C9412030C9412030C9412030C94DC0E27
:100030000C9412030C9412030C9412030C941203EC
:100040000C94150E0C9412030C94850E0C945F0EF8
:100050000C9412030C9412030C9412030C941203CC
:100060000C94F60C0C94120300000000003E5B4F51
:100070005B3E3E6B4F6B3E1C3E7C3E1C183C7E3C08
:10008000181C577D571C1C5E7F5E1C00183C180016
:10009000FFE7C3E7FF0018241800FFE7DBE7FF30A6
:1000A000483A060E2629792926407F050507407F14
:1000B00005253F5A3CE73C5A7F3E1C1C08081C1C87
:1000C0003E7F14227F22145F5F005F5F06097F017D
:1000D0007F006689956A606060606094A2FFA29468
:1000E00008047E040810207E201008082A1C080836
:1000F0001C2A08081E101010100C1E0C1E0C303884
:100100003E3830060E3E0E06000000000000005F84
:1001100000000007000700147F147F14242A7F2AA0
:100120001223130864623649562050000807030062
:10013000001C2241000041221C002A1C7F1C2A08AE
:10014000083E080800807030000808080808000011
:1001500060600020100804023E5149453E00427F85
:10016000400072494949462141494D331814127FD4
:100170001027454545393C4A494931412111090774
:100180003649494936464949291E000014000000F5
:1001900040340000000814224114141414140041C7
:1001A00022140802015909063E415D594E7C121184
:1001B000127C7F494949363E414141227F414141BC
:1001C0003E7F494949417F090909013E4141517337
:1001D0007F0808087F00417F41002040413F017FA8
:1001E000081422417F404040407F021C027F7F0470
:1001F00008107F3E4141413E7F090909063E4151B9
:10020000215E7F09192946264949493203017F01A8
:10021000033F4040403F1F2040201F3F4038403FA9
:10022000631408146303047804036159494D4300BF
:100230007F4141410204081020004141417F0402F6
:10024000010204404040404000030708002054548D
:1002500078407F284444383844444428384444286B
:100260007F385454541800087E090218A4A49C78BE
:100270007F0804047800447D40002040403D007F1A
:100280001028440000417F40007C047804787C08FA
:100290000404783844444438FC18242418182424CE
:1002A00018FC7C08040408485454542404043F44B3
:1002B000243C4040207C1C2040201C3C4030403CE2
:1002C00044281028444C9090907C4464544C440042
:1002D00008364100000077000000413608000201A6
:1002E0000204023C2623263C1EA1A161123A404092
:1002F000207A38545455592155557941225454780F
:1003000042215554784020545579400C1E527212A7
:100310003955555559395454545939555454580030
:1003200000457C410002457D420001457C407D1234
:1003300011127DF0282528F07C5455450020545496
:100340007C547C0A097F4932494949323A44444441
:100350003A324A4848303A4141217A3A424020787C
:10036000009DA0A07D3D4242423D3D4040403D3C7D
:1003700024FF2424487E4943662B2FFC2F2BFF09A2
:1003800029F620C0887E0903205454794100004496
:100390007D413048484A32384040227A007A0A0A81
:1003A000727D0D19317D2629292F282629292926F4
:1003B00030484D4020380808080808080808382F39
:1003C00010C8ACBA2F102834FA00007B00000814C3
:1003D0002A142222142A14085500550055AA55AA99
:1003E00055AAFF55FF55FF000000FF00101010FF39
:1003F00000141414FF001010FF00FF1010F010F094
:10040000141414FC001414F700FF0000FF00FF1484
:1004100014F404FC141417101F10101F101F1414D0
:10042000141F00101010F0000000001F101010101A
:100430001F10101010F010000000FF10101010100E
:1004400010101010FF10000000FF140000FF00FF4C
:1004500000001F10170000FC04F4141417101714E8
:1004600014F404F40000FF00F7141414141414140A
:10047000F700F7141414171410101F101F1414147D
:10048000F4141010F010F000001F101F0000001FE7
:1004900014000000FC140000F010F01010FF10FF1A
:1004A000141414FF141010101F00000000F010FFAF
:1004B000FFFFFFFFF0F0F0F0F0FFFFFF0000000093
:1004C00000FFFF0F0F0F0F0F3844443844FC4A4A17
:1004D0004A347E02020606027E027E0263554941CC
:1004E000633844443C04407E201E2006027E020203
:1004F00099A5E7A5991C2A492A1C4C7201724C3017
:100500004A4D4D303048784830BC625A463D3E49ED
:100510004949007E0101017E2A2A2A2A2A44445F91
:10052000444440514A444040444A51400000FF0185
:1005300003E080FF000008086B6B08361236243693
:10054000060F090F060000181800000010100030F8
:1005500040FF0101001F01011E00191D1712003C80
:100560003C3C3C000000000000003C7E818100001B
:1005700000008181423C00000000000800020100F0
:10058000000304070000000000000000000000005D
:10059000240027002A000000000023002600290074
:1005A00000000000250028002B00040404040404BB
:1005B0000404020202020202030303030303010212
:1005C00004081020408001020408102001020408E1
:1005D0001020210F11241FBECFEFD8E0DEBFCDBF0A
:1005E00011E0A0E0B1E0E8EDFCE202C005900D9260
:1005F000AE35B107D9F723E0AEE5B1E001C01D92F9
:10060000A131B207E1F712E0CAEED2E004C02197AF
:10061000FE010E945F16C93ED107C9F70E94BE0FB6
:100620000C946A160C9400002091290281E021327A
:1006300008F044C0809105028111FCCF809128020E
:1006400092E09093050291E0909304029FEF9093C3
:1006500003021092020220930102A8E0B2E0E1EE50
:10066000F1E090E0291331C01092E0019091E00197
:10067000880F892B8093E0018091DF01813049F55B
:100680001092DF018091E0018093BB008091BC005B
:1006900083FDF8CF85EC8093BC0080910502823009
:1006A000E1F3809103028F3FB1F080910302803229
:1006B000A1F080910302803391F084E01092070250
:1006C000109229021092060208953D9131939F5F86
:1006D000C9CF85EEE0CF80E0F1CF82E0EFCF83E0BD
:1006E000EDCFEFE6F0E080818D7F808382E0809324
:1006F000810081E080938000E091DD01F091DE01D6
:1007000090818091DC018095892380831092DC01A7
:100710000895089585ED8093BC008091BC0084FD10
:10072000FCCF1092050208952091B301260F3327C4
:10073000331F21323105ECF420910502FC0190E0D9
:1007400080E0243069F082E00895A091B301219106
:10075000AC014F565E4FA40FB52FB11D2C930196DF
:10076000861798F38091B301680F6093B30180E01E
:10077000089581E0089508950895E0919001809191
:100780008F01E81730F4F0E0E159FE4F808190E0EE
:1007900008958FEF9FEF08959091900180918F01C0
:1007A0002FEF3FEF981748F4E92FF0E0E159FE4FA3
:1007B000208130E09F5F90939001C901089580915E
:1007C0008F0190919001891B990B0895CF92DF9230
:1007D000EF92FF920F931F93CF93DF937C01CB0196
:1007E0008A0120910602222389F0EB016B01C40EDD
:1007F000D51ECC15DD0569F06991D701ED91FC910D
:100800000190F081E02DC7010995F3CF642F0E947C
:100810009403C801DF91CF911F910F91FF90EF904A
:10082000DF90CF900895CF93DF931F92CDB7DEB7BF
:100830006983209106022223F9F0209129022032B7
:1008400058F021E030E0FC013383228390E080E027
:100850000F90DF91CF91089580910702E82FF0E08B
:10086000E85FFD4F998190838F5F809307028093AB
:10087000290281E090E0ECCF61E0CE0101960E9478
:100880009403F7CFCF93DF938091100391E090937F
:10089000060280932802109207021092290260E05B
:1008A0008AE292E00E941304C5EED2E06B8D8AE2E8
:1008B00092E00E9413046C8D8AE292E00E9413047D
:1008C000229682E0C53FD80789F7DF91CF910C943B
:1008D000140390E0FC01E858FA4F2491FC01E25423
:1008E000FA4F3491FC01E655FA4FE491EE23C9F03A
:1008F000222339F0233001F1A8F4213019F12230FC
:1009000029F1F0E0EE0FFF1FE056FA4FA591B491E8
:100910008FB7F894EC91611126C030953E233C933B
:100920008FBF08952730A9F02830C9F0243049F747
:10093000809180008F7D03C0809180008F778093AD
:100940008000DFCF84B58F7784BDDBCF84B58F7D0A
:10095000FBCF8091B0008F778093B000D2CF809191
:10096000B0008F7DF9CF3E2BDACFCF93DF9390E0AD
:10097000FC01E254FA4F249186559A4FFC01849170
:100980008823D1F090E0880F991FFC01E457FA4FBB
:10099000A591B491FC01E056FA4FC591D491611133
:1009A0000EC09FB7F8948C91E22FE0958E238C9324
:1009B0002881E223E8839FBFDF91CF9108958FB70D
:1009C000F894EC91E22BEC938FBFF6CF3FB7F894FD
:1009D00080916B0190916C01A0916D01B0916E01BD
:1009E00026B5A89B05C02F3F19F00196A11DB11D8A
:1009F0003FBFBA2FA92F982F8827BC01CD01620FC6
:100A0000711D811D911D42E0660F771F881F991F80
:100A10004A95D1F708958F929F92AF92BF92CF924D
:100A2000DF92EF92FF924B015C010E94E6046B01A2
:100A30007C010E94E6046C197D098E099F09683EBD
:100A4000734081059105A8F321E0821A9108A1085D
:100A5000B10888EEC80E83E0D81EE11CF11C811499
:100A60009104A104B10429F7FF90EF90DF90CF909B
:100A7000BF90AF909F908F900895AF92BF92CF920A
:100A8000DF92EF92FF920F931F93CF93DF936C014E
:100A90007B018B01040F151FEB015E01AE18BF082F
:100AA000C017D10759F06991D601ED91FC910190E1
:100AB000F081E02DC6010995892B79F7C501DF91F9
:100AC000CF911F910F91FF90EF90DF90CF90BF904B
:100AD000AF900895FC01538D448D252F30E0842F75
:100AE00090E0821B930B541710F0CF960895019756
:100AF0000895FC01918D828D981761F0A28DAE0F43
:100B0000BF2FB11D5D968C91928D9F5F9F73928FC9
:100B100090E008958FEF9FEF0895FC01918D828DF5
:100B2000981731F0828DE80FF11D858D90E00895C2
:100B30008FEF9FEF0895FC01918D228D892F90E01A
:100B4000805C9F4F821B91098F739927089586E3DC
:100B500092E00E949B0521E0892B09F420E0822F7E
:100B6000089580E090E0892B29F00E94A70581116B
:100B70000C9400000895FC01A48DA80FB92FB11D9D
:100B8000A35ABF4F2C91848D90E001968F739927C3
:100B9000848FA689B7892C93A089B1898C918370A1
:100BA00080648C93938D848D981306C00288F3899A
:100BB000E02D80818F7D80830895EF92FF920F93C7
:100BC0001F93CF93DF93EC0181E0888F9B8D8C8DF9
:100BD00098131AC0E889F989808185FF15C09FB7ED
:100BE000F894EE89FF896083E889F98980818370B0
:100BF000806480839FBF81E090E0DF91CF911F915F
:100C00000F91FF90EF900895F62E0B8D10E00F5F7F
:100C10001F4F0F731127E02E8C8D8E110CC00FB655
:100C200007FCFACFE889F989808185FFF5CFCE01ED
:100C30000E94BB05F1CFEB8DEC0FFD2FF11DE35AA8
:100C4000FF4FF0829FB7F8940B8FEA89FB89808170
:100C50008062CFCFCF93DF93EC01888D8823B9F0EA
:100C6000AA89BB89E889F9898C9185FD03C08081B7
:100C700086FD0DC00FB607FCF7CF8C9185FFF2CF34
:100C8000808185FFEDCFCE010E94BB05E9CFDF91CA
:100C9000CF9108954830510580F56830710568F5A9
:100CA000DC015696EC91E23049F1E33091F1E1300C
:100CB00031F4E7E0F0E0E41BF50BAB01BF01695F45
:100CC0007F4F440F551FDC01A40FB51F5B968D911C
:100CD0009C915C9767707727E1E0F0E0AF0102C07C
:100CE000440F551F6A95E2F7BA01232BC9F0682B10
:100CF000792B5C967C936E935B970895E7E0F0E028
:100D0000DF01A61BB70BBD01DF01A41BB50BAD01B5
:100D1000D6CFE7E0F0E0E61BF70BBA01AF01CFCF8B
:100D20006095709568237923E4CF0895FC01637082
:100D3000668B8481958126813781613039F06330FB
:100D400029F091878087338722870895318720870C
:100D50009387828708952F923F924F925F926F926E
:100D60007F928F929F92AF92BF92CF92DF92EF923B
:100D7000FF920F931F93CF93DF93CDB7DEB76A97A0
:100D80000FB6F894DEBF0FBECDBF9A8F898F7A83DE
:100D900069834A01D22E18870F833701BC2CDC01EE
:100DA00059962D913C915A972115310509F015C19D
:100DB00018968D919C911997681779070CF0D7C1F7
:100DC0001A968D919C91481759070CF0D0C14C2C64
:100DD000512CB6E0CB9E600D711D11247C876B8772
:100DE000161617060CF0C3C1EA2DF0E0FA87E98762
:100DF00093E0EE0FFF1F9A95E1F7F88BEF87CF0195
:100E0000840F951F181619060CF0B1C1A98DBA8D63
:100E100058968C91811104C0BFEABD1508F4D39493
:100E2000A98DBA8DED91FC9111970284F385E02D87
:100E3000CD010995B5E0DB9EC0011124E981FA815D
:100E4000FC83EB83312C212C9C0128593F4F388F98
:100E50002F8B4A2D50E05E8B4D8BEF89F88DE20D84
:100E6000F31D44919E828D82D12CC12C69817A819F
:100E7000620D731D7A8B698B842F90E09C8B8B8B1A
:100E8000E98DFA8DA081B18140FF82C0F1E0BF12EF
:100E90006FC0AF126DC01C96ED91FC912F8138850B
:100EA000A4014C0D5D1D69897A89898D9A8D0995FA
:100EB000EB89FC89F595E7954E2F5FEFC51AD50AAA
:100EC0006D817E818D899E89680F791F7E836D83F8
:100ED00098E0C916D10481F6AFEF2A1A3A0AEB81DD
:100EE000FC81E40DF51DFC83EB83F5E02F16310446
:100EF00009F0B3CF2F81388526153705B9F0A98DB4
:100F0000BA8DED91FC91B1E0BB1257C0AB1255C048
:100F100069817A816B5F7F4F0088F189E02D8301C1
:100F200028E030E0A401898D9A8D0995A98DBA8DAC
:100F3000ED91FC9111970688F789E02DCD016A9615
:100F40000FB6F894DEBF0FBECDBFDF91CF911F91DA
:100F50000F91FF90EF90DF90CF90BF90AF909F9058
:100F60008F907F906F905F904F903F902F9009945B
:100F70001E96ED91FC91EF80F88409851A85920107
:100F80004D815E816B817C81898D9A8D099590CF91
:100F90002F8138852615370509F48ACF31E0B31241
:100FA00007C0A31205C01C96ED91FC91930178CF68
:100FB0001E96ED91FC917301E0CF6B857C856419E1
:100FC00075090684F785E02D73010F851889920154
:100FD000A401898D9A8D0995A9CFF9013496949130
:100FE000329745915491D91AB7E0DB9E400D511DBF
:100FF0001124F901259134913C8B2B8BFA0125901A
:101000003490FA013296749031963491398B32963D
:1010100064903196449041E04C1518F04A1508F060
:101020007FC0662D062C000C770B7C836B83842D90
:10103000042C000C990B9E838D83A98DBA8DED91A4
:10104000FC9111970284F385E02DCD010995512C77
:10105000D12CC12CEA2DF0E0FA87E9872B2D30E066
:101060003C872B87A401440D511D47FC5A95588F8E
:101070004F8B69817A81660D711D67FC7A957E8739
:101080006D877989C71608F051CF2C2D30E04D813E
:101090005E81420F531FA985BA854A9FC0014B9FAD
:1010A000900D5A9F900D1124FC01E80DF91DF88B4D
:1010B000EF87852D612C4F89588D420F531F5E8B12
:1010C0004D8B671408F050C044244394480E877039
:1010D00041F4C1010196EB89FC89E20DF31DD49026
:1010E0001C01D7FE19C0A98DBA8DED91FC91662D1A
:1010F00070E0B1E0BB1219C0AB1217C02D853E8560
:10110000620F731F0484F585E02D2F8138854D898A
:101110005E89898D9A8D0995DD0C6394842DD1CFDC
:101120001E821D821C821B8288CF4B815C81640FD2
:10113000751FAB85BC856A9FC0016B9F900D7A9F20
:10114000900D112469817A81680F791F0684F785D3
:10115000E02DEF80F88409851A859D014F85588917
:10116000898D9A8D0995D8CF570CC3948ACF6A96EA
:101170000FB6F894DEBF0FBECDBFDF91CF911F91A8
:101180000F91FF90EF90DF90CF90BF90AF909F9026
:101190008F907F906F905F904F903F902F90089529
:1011A0008F929F92AF92CF92EF92FF920F931F93E5
:1011B000CF93DF93EC01262F898D9A8D009709F04C
:1011C00051C06A30D1F41D861C868D8948E0849F09
:1011D000900111248E859F85820F931F9F878E8794
:1011E00081E090E0DF91CF911F910F91FF90EF9000
:1011F000CF90AF909F908F9008956D3089F3CC88F9
:10120000AD888F898823C1F08C859D8536E0C39E8B
:10121000800D911D1124488559854817590764F49C
:101220004E855F851D861C8638E0A39EC001112473
:10123000840F951F9F878E87EA88FB880889198904
:101240004E855F856C857D85CE010E94AB062C891D
:101250008C859D8546E0249F800D911D11249D87DE
:101260008C87BECF6A3069F41D861C86FC013696D9
:10127000E4912D898E859F85E29F800D911D11241B
:10128000ADCF6D3009F4ACCFFC01349634916317C7
:1012900008F4A6CF3196E491E61708F4A1CFFC013B
:1012A000329685909490462F431B342F47E0349F0D
:1012B000800C911C1124F401329634913196E49102
:1012C0003323A9F1EE2399F1CC88F4013596E4910A
:1012D000AD884F89442301F10E2E000CFF0BE30F64
:1012E000F11DCE9EA001CF9E500D11246C857D85F1
:1012F000460F571F68857985641775076CF44E850E
:101300005F851D861C86FC013696E491AE9E400DDD
:10131000511D11245F874E87EA88FB880889198947
:101320004E855F856C857D85CE010E94AB06F401FC
:101330003496E4912C898C859D85E29F800D911DCA
:1013400011248DCF6F927F928F929F92AF92BF9216
:10135000CF92DF92EF92FF920F931F93CF93DF9381
:10136000EC016B015A0139014801E881F9810284DD
:10137000F385E02D0995E881F9810288F389E02D54
:1013800087019301A501B601CE010995A501480D7C
:10139000591D41505109E881F9810288F389E02DF6
:1013A0009301B601CE010995E881F9810088F189A0
:1013B000E02D9401A501B601CE010995C60CD71CFC
:1013C000B60161507109E881F9810088F189E02D49
:1013D0009401A501CE010995E881F9810688F78974
:1013E000E02DCE01DF91CF911F910F91FF90EF90F3
:1013F000DF90CF90BF90AF909F908F907F906F9035
:1014000009946F927F928F929F92AF92BF92CF92E8
:10141000DF92EF92FF920F931F93CF93DF935C01C4
:10142000EB016A01490138018701DC01ED91FC9172
:101430006217730719F5641675062CF0962D872D23
:101440003A01C92ED82E9601261937092F5F3F4F32
:10145000048CF58DE02DA301BE01C5010995DF9136
:10146000CF911F910F91FF90EF90DF90CF90BF90A1
:10147000AF909F908F907F906F900895461557057D
:1014800091F42617370724F0892D4B01C22FD82F4E
:101490009E01281939092F5F3F4F068CF78DE02DEB
:1014A000A601B401DACF0284F385E02D0995D501B8
:1014B000ED91FC910488F589E02D83019401A6014A
:1014C000BE01C5010995D501ED91FC910688F7890A
:1014D000E02DC501DF91CF911F910F91FF90EF900B
:1014E000DF90CF90BF90AF909F908F907F906F9044
:1014F0000994EF92FF920F931F93DC011A960D91BE
:101500001C911B9718962D913C911997ED91FC9188
:1015100000A0F1A1E02D7B0150E040E070E060E030
:1015200009951F910F91FF90EF9008954F925F9250
:101530006F927F928F929F92AF92BF92CF92DF92E3
:10154000EF92FF920F931F93CF93DF936C012B01C8
:101550005A0139014801DC01ED91FC910284F385C7
:10156000E02D0995E201640C751CD601ED91FC910A
:10157000C615D7055CF40088F189E02D8701940138
:10158000A501BE01C60109952196EFCF0688F7890E
:10159000E02DC601DF91CF911F910F91FF90EF9049
:1015A000DF90CF90BF90AF909F908F907F906F9083
:1015B0005F904F9009948F929F92AF92BF92CF927B
:1015C000DF92EF92FF920F931F93CF93DF93EC0183
:1015D0005B014A016901E881F9810284F385E02D0C
:1015E000099595012C0D3D1D21503109E881F981A6
:1015F0000488F589E02D78018401A401B501CE01AC
:101600000995E881F9810688F789E02DCE01DF91FF
:10161000CF911F910F91FF90EF90DF90CF90BF90EF
:10162000AF909F908F9009948F929F92AF92BF92AC
:10163000CF92DF92EF92FF920F931F93CF93DF939E
:10164000EC015B014A0169017801E881F9810284BA
:10165000F385E02D0995C80CD91C860101501109AC
:10166000E881F9810488F589E02D9501A401B5018F
:10167000CE010995E881F9810688F789E02DCE0130
:10168000DF91CF911F910F91FF90EF90DF90CF905E
:10169000BF90AF909F908F900994EF92FF920F931D
:1016A0001F93DC01ED91FC9100A0F1A1E02D0995C3
:1016B0001F910F91FF90EF9008950F931F93DC01FE
:1016C000ED91FC91068CF78DE02D09951F910F91FE
:1016D00008950F931F93DC01ED91FC91048CF58D1F
:1016E000E02D09951F910F910895DC01ED91FC917A
:1016F0000084F185E02D0994CF92DF92FF920F9341
:101700001F93CF93DF936C01F12C10E000E0D0E049
:10171000C0E0FF0C209711F4F601F490F7FE08C02A
:1017200021E030E0A801BE0185EE92E00E94750B39
:101730002196C830D10569F70F5F1F4FFFEFCF1A11
:10174000DF0A0830110519F7DF91CF911F910F9132
:10175000FF90DF90CF9008952F923F924F925F922B
:101760006F927F928F929F92AF92BF92CF92DF92B1
:10177000EF92FF920F931F93CF93DF9300D000D08F
:1017800000D0CDB7DEB73C016A013E832D83FC82D9
:10179000EB825801A41AB50AB7FE03C0B194A19414
:1017A000B1088D809E80861A970A97FE03C0919497
:1017B000819491088A149B045CF0902F812F0D81F5
:1017C0001E819D838E839C2D8D2D6B01692F782F1B
:1017D0000C151D055CF09D818E817E836D83692FC4
:1017E000782F902F812F8601C92ED82E1601201A0E
:1017F000310A2B012D813E81421A530A57FE03C044
:10180000519441945108710137FE03C03FEFE31A30
:10181000F30AF594E7948D819E81861797075CF50E
:10182000A1E0B0E0BA83A983C016D1064CF1D30180
:10183000ED91FC910484F585E02D2B813C81A8017C
:101840006D817E818A149B041CF04D815E81B801FC
:10185000C3010995E418F508F7FE0AC02D813E8101
:1018600089819A81280F391F3E832D83E20CF31C56
:101870000F5F1F4FD9CF2FEF3FEF3A832983D4CF8C
:1018800026960FB6F894DEBF0FBECDBFDF91CF9185
:101890001F910F91FF90EF90DF90CF90BF90AF908E
:1018A0009F908F907F906F905F904F903F902F9080
:1018B0000895089590E080E0089560E08AE00E9435
:1018C000690461E08BE00E94690460E08CE00E94A2
:1018D000690461E088E00E946904089561E08AE09B
:1018E0000E94690460E08BE00E94690461E08CE082
:1018F0000E94690460E088E00E94690408950F93E3
:101900001F93CF93C82F9A01AB0160E079E08DE37C
:1019100090E00E943D1689019A01015011092109A8
:1019200031098FEF9FEFDC018093D8019093D901AB
:10193000A093DA01B093DB018091DC01811125C015
:101940008C2F90E0FC01E254FA4F64916093DC012B
:1019500086559A4FFC014491E42FF0E0EE0FFF1FF3
:10196000E056FA4FA591B491B093DE01A093DD014A
:10197000FC018491E82FF0E0EE0FFF1FE457FA4FCF
:10198000A591B491EC916E2B6C931093870000930A
:1019900086008091840090918500B0E0A0E0081757
:1019A00019072A073B0720F4109385000093840051
:1019B00081E18093810080E18093800080916F00BD
:1019C000826080936F00CF911F910F910895FC0169
:1019D00001900020E9F73197AF01481B590BBC017A
:1019E00086E392E00C943D050E9465161F920F92CB
:1019F0000FB60F9211242F933F934F935F936F93E2
:101A00007F938F939F93AF93BF93EF93FF938091B7
:101A1000B900887F803609F44AC0F0F5883209F4AD
:101A2000A7C018F5803109F49BC0B8F4882309F4E5
:101A3000F9C0883009F494C0FF91EF91BF91AF9144
:101A40009F918F917F916F915F914F913F912F91D6
:101A50000F900FBE0F901F901895883109F488C021
:101A6000803251F78093030214C0803409F49DC082
:101A700040F48033B9F38833F9F68093030285ECA0
:101A8000B0C0803509F485C0883509F496C0883423
:101A900099F60E948A03D0CF883909F48CC038F5B2
:101AA000883729F050F4883611F0803729F683E022
:101AB000809305021092D70157C0883809F47BC083
:101AC000803919F0803809F0B7CF8091D701803282
:101AD00008F071C0E091D70181E08E0F8093D701AB
:101AE0008091BB00F0E0E954FE4F80833DC0803B15
:101AF00039F0E0F4803A09F479C0883A09F09CCFD3
:101B000084E0809305021092B4011092B301E09139
:101B1000B101F091B20109958091B30181110FC01B
:101B200081E08093B3011092910109C0803C09F4D7
:101B3000A6CF883C09F4A3CF883B09F07DCFE09184
:101B4000B40181E08E0F8093B401F0E0EF56FE4FB8
:101B500080818093BB009091B4018091B30129C032
:101B60008091E0018093BB0085EC8093BC0064CF42
:101B70009091020280910102981758F5E0910202BB
:101B800081E08E0F80930202F0E0EF51FE4F8081E2
:101B9000E9CFE091020281E08E0F809302028091F2
:101BA000BB00F0E0EF51FE4F8083909102028091E4
:101BB00001029817C8F285E8D8CFE091020281E0CF
:101BC0008E0F809302028091BB00F0E0EF51FE4F38
:101BD00080838091040281115CCF81E08093DF01DA
:101BE00084EA8093BC001092050226CF85EC809396
:101BF000BC00109205028091D701803230F4E09150
:101C0000D701F0E0E954FE4F10826091D70170E0F7
:101C1000E091B501F091B60187EB91E00995109242
:101C2000D7010ACF1092030234CF1F920F920FB642
:101C30000F9211242F933F938F939F93AF93BF9352
:101C40008091670190916801A0916901B0916A014A
:101C50003091660123E0230F2D3758F50196A11D21
:101C6000B11D209366018093670190936801A09352
:101C70006901B0936A0180916B0190916C01A09110
:101C80006D01B0916E010196A11DB11D80936B0194
:101C900090936C01A0936D01B0936E01BF91AF91D1
:101CA0009F918F913F912F910F900FBE0F901F909A
:101CB000189526E8230F0296A11DB11DD2CF1F92C1
:101CC0000F920FB60F9211242F933F934F935F9370
:101CD0006F937F938F939F93AF93BF93EF93FF93F4
:101CE00086E392E00E94BB05FF91EF91BF91AF9117
:101CF0009F918F917F916F915F914F913F912F9124
:101D00000F900FBE0F901F9018951F920F920FB655
:101D10000F9211242F938F939F93EF93FF93E09152
:101D20004602F09147028081E0914C02F0914D0211
:101D300082FD1BC0908180914F028F5F8F73209135
:101D40005002821741F0E0914F02F0E0EA5CFD4F53
:101D5000958F80934F02FF91EF919F918F912F91DB
:101D60000F900FBE0F901F9018958081F4CF1F9297
:101D70000F920FB60F9211242F933F934F935F93BF
:101D80006F937F938F939F93AF93BF93EF93FF9343
:101D9000F0E0E0E00995FF91EF91BF91AF919F9145
:101DA0008F917F916F915F914F913F912F910F9004
:101DB0000FBE0F901F9018951F920F920FB60F92A3
:101DC00011242F933F934F935F936F937F938F9340
:101DD0009F93AF93BF93EF93FF932FB7F8948091A6
:101DE000670190916801A0916901B0916A012FBFCC
:101DF0004091D8015091D9016091DA017091DB01D5
:101E000084179507A607B70710F00E947103E091A9
:101E1000DD01F091DE0180819091DC0189278083D2
:101E2000FF91EF91BF91AF919F918F917F916F91B2
:101E30005F914F913F912F910F900FBE0F901F9088
:101E40001895EAE2F2E01382128288EE93E0A0E0B5
:101E5000B0E084839583A683B78324E031E03183A7
:101E60002083E6E3F2E01382128284839583A683C3
:101E7000B78386E191E09183808385EC90E095873C
:101E8000848784EC90E09787868780EC90E0918B44
:101E9000808B81EC90E0938B828B82EC90E0958B31
:101EA000848B86EC90E0978B868B118E128E138E2E
:101EB000148EE5EEF2E01382128288E090E09583C2
:101EC0008483978386839187808793878287168A06
:101ED000158614861786168681E0858B848B2FEFF6
:101EE0003FEF338B228B318B208B878B108E128EA2
:101EF000118E88E291E091838083E4ECF5E0E49137
:101F0000A3EDB2E01496EC931497E0ECF5E0E491C5
:101F10001596EC93159780EB95E0FC012491E22F48
:101F2000F0E0EE0FFF1FE056FA4F2591349117961F
:101F30003C932E931697ECEAF5E0E491F0E0EE0F77
:101F4000FF1FEA56FA4F2591349119963C932E9330
:101F50001897FC018491E82FF0E0EE0FFF1FE45783
:101F6000FA4F859194911B969C938E931A9781ECCE
:101F70009CE21D969C938E931C970895CF93DF93BC
:101F8000CDB7DEB7A1970FB6F894DEBF0FBECDBFB9
:101F9000789484B5826084BD84B5816084BD85B544
:101FA000826085BD85B5816085BD80916E00816050
:101FB00080936E00109281008091810082608093F6
:101FC00081008091810081608093810080918000F8
:101FD0008160809380008091B10084608093B10023
:101FE0008091B00081608093B00080917A0084601D
:101FF00080937A0080917A00826080937A00809149
:102000007A00816080937A0080917A008068809362
:102010007A001092C100E0914602F091470282E0FE
:102020008083E0914202F09143021082E0914402E9
:10203000F09145028FEC808310924E02E0914A02AB
:10204000F0914B0286E08083E0914802F0914902D2
:10205000808180618083E0914802F0914902808113
:1020600088608083E0914802F09149028081806815
:102070008083E0914802F091490280818F7D8083C6
:1020800061E089E00E94B50461E086E00E94B50449
:1020900060E082E00E94B50461E08AE00E94B5043D
:1020A00061E08CE00E94B50461E08BE00E94B50421
:1020B00061E088E00E94B50480E7809310031092ED
:1020C000900110928F011092070210922902109233
:1020D000050211E0109304021092DF0161E082E139
:1020E0000E94690461E083E10E9469048091B90063
:1020F0008E7F8093B9008091B9008D7F8093B90065
:1021000088E48093B80085E48093BC008BEB93E077
:102110009093B2018093B1018CEB93E09093B60160
:102120008093B501809110031093060280932802DA
:10213000109207021092290261E28AE292E00E9464
:1021400013040E94140380911003109306028093DD
:102150002802109207021092290261E88AE292E0B6
:102160000E9413040E94140380911003109306022E
:102170008093280210920702109229026FEE8AE2E1
:1021800092E00E9413040E9414038BE0282E312C4D
:1021900093E2C92ED12C29E3A22EB12C3AE0432E92
:1021A000512C612C712C40E0842E40E0942EE09163
:1021B000DD02F091DE0280819091D702892B80832D
:1021C000E091D902F091DA0290818091D702809556
:1021D00089238083C1010197F1F7E091D902F09141
:1021E000DA0280819091D702892B8083C601019702
:1021F000F1F7E091D902F091DA0290818091D70253
:10220000809589238083E091DD02F091DE02908148
:102210008091D702809589238083E091DB02F09141
:10222000DC0280819091D802892309F435C190E0C5
:1022300080E0B5010E9429167B0180E591E00E94B3
:10224000E70C970150E040E019A28E010F5D1F4F8F
:10225000CA01B901A30192010E943D16605DF80117
:1022600062938F01211531054105510589F730979A
:1022700019F0CF010E94E70C87E591E00E94E70C7E
:102280008AE591E00E94E70CC7010197C19708F029
:10229000F7C0F0E1EF16F10408F09DC3109263015E
:1022A00010926201809164019091650101968430E1
:1022B000910509F463C19093650180936401809155
:1022C000640190916501009709F05DC10E945D0C69
:1022D00040ED50E060E070E089E00E947F0C6EE528
:1022E00071E080E090E00E940B0547E351E060E080
:1022F00070E089E00E947F0C64E670E080E090E08E
:102300000E940B054FE951E060E070E089E00E9417
:102310007F0C6DE770E080E090E00E940B0540EDDF
:1023200050E060E070E089E00E947F0C64E670E0BD
:1023300080E090E00E940B0547E351E060E070E030
:1023400089E00E947F0C64E670E080E090E00E94EB
:102350000B054FE951E060E070E089E00E947F0CDE
:1023600068EC70E080E090E00E940B050E94710331
:1023700069E170E080E090E00E940B0540ED50E0E4
:1023800060E070E089E00E947F0C6EE571E080E023
:1023900090E00E940B0547E351E060E070E089E0C7
:1023A0000E947F0C64E670E080E090E00E940B05E4
:1023B0004DE551E060E070E089E00E947F0C6DE740
:1023C00070E080E090E00E940B0540ED50E060E09E
:1023D00070E089E00E947F0C64E670E080E090E0AD
:1023E0000E940B0547E351E060E070E089E00E9445
:1023F0007F0C64E670E080E090E00E940B054DE504
:1024000051E060E070E089E00E947F0C68EC70E0D1
:1024100080E090E00E940B050E94710369E170E08A
:1024200080E090E00E940B051092010310920003DF
:1024300010920303109202031092050310920403FA
:1024400010920703109206031092090310920803DA
:1024500010920B0310920A0310920D0310920C03BA
:1024600010920F0310920E0388E695E00E947C0BF9
:102470000E94420468EB7BE080E090E00E940B0544
:102480008114910409F493CE0E94A705882309F4CE
:102490008ECE0E9400008BCE0E94E604AB01BC01F0
:1024A0008091DF029091E002B0E0A0E08855994E63
:1024B000AF4FBF4F840F951FA61FB71F8093E10238
:1024C0009093E202A093E302B093E402E091DB0276
:1024D000F091DC0280819091D802892381F40E94DE
:1024E000E6040091E1021091E2022091E3023091B2
:1024F000E402061717072807390740F798CE0E940D
:10250000E6042091DF023091E002620F731F811D0B
:10251000911D6093E1027093E2028093E302909335
:10252000E402E091DB02F091DC0280819091D8021C
:10253000892381F00E94E6040091E1021091E202F9
:102540002091E3023091E4020617170728073907A4
:1025500040F76DCE0E94E6042091DF023091E00248
:10256000A901455051092091E1023091E202FA019E
:10257000E21BF30BCF01860F971F5BCE1092650114
:10258000109264019CCE8130910509F0ADC00E948B
:102590005D0C40ED50E060E070E089E00E947F0C4F
:1025A0006EE571E080E090E00E940B0547E351E0AA
:1025B00060E070E089E00E947F0C64E670E080E0FB
:1025C00090E00E940B054FE951E060E070E089E087
:1025D0000E947F0C6DE770E080E090E00E940B05A8
:1025E00040ED50E060E070E089E00E947F0C64E61E
:1025F00070E080E090E00E940B0547E351E060E06E
:1026000070E089E00E947F0C64E670E080E090E07A
:102610000E940B054FE951E060E070E089E00E9404
:102620007F0C68EC70E080E090E00E940B050E9457
:10263000710369E170E080E090E00E940B0540EDDD
:1026400050E060E070E089E00E947F0C6EE571E090
:1026500080E090E00E940B0547E351E060E070E00D
:1026600089E00E947F0C64E670E080E090E00E94C8
:102670000B054DE551E060E070E089E00E947F0CC1
:102680006DE770E080E090E00E940B0540ED50E0C7
:1026900060E070E089E00E947F0C64E670E080E01A
:1026A00090E00E940B0547E351E060E070E089E0B4
:1026B0000E947F0C64E670E080E090E00E940B05D1
:1026C0004DE551E060E070E089E00E947F0C6AEF28
:1026D00070E080E090E00E940B050E94710368ECBE
:1026E00070E080E090E09ECE8230910509F0BDC0A0
:1026F0000E945D0C4FE353E060E070E089E00E94CF
:102700007F0C68EC70E080E090E00E940B0544EAEA
:1027100053E060E070E089E00E947F0C68EC70E0BC
:1027200080E090E00E940B0547E154E060E070E03B
:1027300089E00E947F0C68EC70E080E090E00E94ED
:102740000B050E94710368EC70E080E090E00E944D
:102750000B0547E154E060E070E089E00E947F0CE7
:1027600068EC70E080E090E00E940B0544EA53E0E2
:1027700060E070E089E00E947F0C68EC70E080E02F
:1027800090E00E940B054FE353E060E070E089E0C9
:102790000E947F0C6EE571E080E090E00E940B05E6
:1027A00044EA53E060E070E089E00E947F0C6DE055
:1027B00072E080E090E00E940B054FE353E060E0A0
:1027C00070E089E00E947F0C68E572E080E090E0B4
:1027D0000E940B050E94710368EC70E080E090E0BD
:1027E0000E940B054FE353E060E070E089E00E9437
:1027F0007F0C68EC70E080E090E00E940B0544EAFA
:1028000053E060E070E089E00E947F0C68EC70E0CB
:1028100080E090E00E940B0547E154E060E070E04A
:1028200089E00E947F0C68EC70E080E090E00E94FC
:102830000B050E94710368EC70E080E090E00E945C
:102840000B0547E154E060E070E089E00E947F0CF6
:1028500068EE73E080E090E00E940B050E94710337
:102860006CE271E080E090E0DDCD8330910509F00D
:10287000A8C00E945D0C4FE353E060E070E089E087
:102880000E947F0C68EC70E080E090E00E940B05F5
:1028900044EA53E060E070E089E00E947F0C68EC5D
:1028A00070E080E090E00E940B0547E154E060E0BA
:1028B00070E089E00E947F0C68EC70E080E090E0BE
:1028C0000E940B050E94710368EC70E080E090E0CC
:1028D0000E940B0547E154E060E070E089E00E944F
:1028E0007F0C68EC70E080E090E00E940B0544EA09
:1028F00053E060E070E089E00E947F0C68EC70E0DB
:1029000080E090E00E940B054FE353E060E070E050
:1029100089E00E947F0C6EE571E080E090E00E940B
:102920000B0544EA53E060E070E089E00E947F0C10
:102930006DE072E080E090E00E940B054FE353E011
:1029400060E070E089E00E947F0C68E572E080E062
:1029500090E00E940B050E94710368EC70E080E03B
:1029600090E00E940B054FE353E060E070E089E0E7
:102970000E947F0C64EF71E080E090E00E940B0504
:1029800044EA53E060E070E089E00E947F0C66E971
:1029900070E080E090E00E940B050E94710364E605
:1029A00070E080E090E00E940B0544EA53E060E0B4
:1029B00070E089E00E947F0C6BE673E080E090E0BD
:1029C0004BCF049709F030CD0E94710360ED77E0A2
:1029D00080E090E027CD1092650110926401809113
:1029E00062019091630101968430910509F486C0DB
:1029F00090936301809362018091620190916301E1
:102A0000009709F080C00E946E0C43E952E060E03C
:102A100070E089E00E947F0C6EEE72E080E090E052
:102A20000E940B054CED53E060E070E089E00E94ED
:102A30007F0C6EEE72E080E090E00E940B0545E5B1
:102A400054E060E070E089E00E947F0C6EEE72E07E
:102A500080E090E00E940B0543E952E060E070E006
:102A600089E00E947F0C6EEE72E080E090E00E94B0
:102A70000B0544EE52E060E070E089E00E947F0CBC
:102A80006CE271E080E090E00E940B0543E952E0C7
:102A900060E070E089E00E947F0C6EEE72E080E002
:102AA00090E00E940B051092010310920003109217
:102AB0000303109202031092050310920403109274
:102AC0000703109206031092090310920803109254
:102AD0000B0310920A0310920D0310920C03109234
:102AE0000F0310920E0380E795E00E947C0B0E947A
:102AF00042046CE271E080E090E0C0CC109263018F
:102B00001092620179CF8130910509F045C00E9491
:102B10006E0C4AE252E060E070E089E00E947F0CB7
:102B20006AEF70E080E090E00E940B050E94710364
:102B300064E670E080E090E00E940B054AE252E01B
:102B400060E070E089E00E947F0C6AEF70E080E056
:102B500090E00E940B054BE452E060E070E089E0F9
:102B60000E947F0C60E971E080E090E00E940B051C
:102B700043E952E060E070E089E00E947F0C6EEE75
:102B800072E080E090E00E940B050E94710364EF08
:102B900071E080E090E085CF8230910509F04FC070
:102BA0000E946E0C43E952E060E070E089E00E9410
:102BB0007F0C6EEE72E080E090E00E940B054CED21
:102BC00053E060E070E089E00E947F0C6AE872E008
:102BD00080E090E00E940B0545E554E060E070E085
:102BE00089E00E947F0C64EF71E080E090E00E9439
:102BF0000B0547E954E060E070E089E00E947F0C3B
:102C00006AEF70E080E090E00E940B0545E554E03B
:102C100060E070E089E00E947F0C64EF71E080E08A
:102C200090E00E940B054BE452E060E070E089E028
:102C30000E947F0C68EE73E080E090E032CF039753
:102C400009F031CF0E94710360ED77E080E090E001
:102C500028CFAA1BBB1B51E107C0AA1FBB1FA61789
:102C6000B70710F0A61BB70B881F991F5A95A9F735
:102C700080959095BC01CD010895A1E21A2EAA1B62
:102C8000BB1BFD010DC0AA1FBB1FEE1FFF1FA2171C
:102C9000B307E407F50720F0A21BB30BE40BF50B19
:102CA000661F771F881F991F1A9469F760957095A2
:102CB000809590959B01AC01BD01CF010895EE0F69
:102CC000FF1F0590F491E02D099481E090E0F894C5
:082CD0000C946A16F894FFCF82
:102CD800000000001304E6035A0C8903DF03CC0349
:102CE800BD0300000000DD053D056A052A069B05B9
:102CF80079058D0500000000D0083D055A0C590CD7
:102D08004A068903750B4D0B690B5D0BAC0B8903E8
:102D180096069506140BDB0A960A790A010AA20997
:0E2D280050696E673A2000636D000D0A0000CE
:00000001FF
