:100000000C94F8020C9420030C9420030C9420030D
:100010000C9420030C9420030C9420030C942003D4
:100020000C9420030C9420030C9420030C942003C4
:100030000C9420030C9420030C9420030C942003B4
:100040000C94510D0C9420030C94C10D0C949B0D39
:100050000C9420030C9420030C9420030C94200394
:100060000C94320C0C94200300000000003E5B4F07
:100070005B3E3E6B4F6B3E1C3E7C3E1C183C7E3C08
:10008000181C577D571C1C5E7F5E1C00183C180016
:10009000FFE7C3E7FF0018241800FFE7DBE7FF30A6
:1000A000483A060E2629792926407F050507407F14
:1000B00005253F5A3CE73C5A7F3E1C1C08081C1C87
:1000C0003E7F14227F22145F5F005F5F06097F017D
:1000D0007F006689956A606060606094A2FFA29468
:1000E00008047E040810207E201008082A1C080836
:1000F0001C2A08081E101010100C1E0C1E0C303884
:100100003E3830060E3E0E06000000000000005F84
:1001100000000007000700147F147F14242A7F2AA0
:100120001223130864623649562050000807030062
:10013000001C2241000041221C002A1C7F1C2A08AE
:10014000083E080800807030000808080808000011
:1001500060600020100804023E5149453E00427F85
:10016000400072494949462141494D331814127FD4
:100170001027454545393C4A494931412111090774
:100180003649494936464949291E000014000000F5
:1001900040340000000814224114141414140041C7
:1001A00022140802015909063E415D594E7C121184
:1001B000127C7F494949363E414141227F414141BC
:1001C0003E7F494949417F090909013E4141517337
:1001D0007F0808087F00417F41002040413F017FA8
:1001E000081422417F404040407F021C027F7F0470
:1001F00008107F3E4141413E7F090909063E4151B9
:10020000215E7F09192946264949493203017F01A8
:10021000033F4040403F1F2040201F3F4038403FA9
:10022000631408146303047804036159494D4300BF
:100230007F4141410204081020004141417F0402F6
:10024000010204404040404000030708002054548D
:1002500078407F284444383844444428384444286B
:100260007F385454541800087E090218A4A49C78BE
:100270007F0804047800447D40002040403D007F1A
:100280001028440000417F40007C047804787C08FA
:100290000404783844444438FC18242418182424CE
:1002A00018FC7C08040408485454542404043F44B3
:1002B000243C4040207C1C2040201C3C4030403CE2
:1002C00044281028444C9090907C4464544C440042
:1002D00008364100000077000000413608000201A6
:1002E0000204023C2623263C1EA1A161123A404092
:1002F000207A38545455592155557941225454780F
:1003000042215554784020545579400C1E527212A7
:100310003955555559395454545939555454580030
:1003200000457C410002457D420001457C407D1234
:1003300011127DF0282528F07C5455450020545496
:100340007C547C0A097F4932494949323A44444441
:100350003A324A4848303A4141217A3A424020787C
:10036000009DA0A07D3D4242423D3D4040403D3C7D
:1003700024FF2424487E4943662B2FFC2F2BFF09A2
:1003800029F620C0887E0903205454794100004496
:100390007D413048484A32384040227A007A0A0A81
:1003A000727D0D19317D2629292F282629292926F4
:1003B00030484D4020380808080808080808382F39
:1003C00010C8ACBA2F102834FA00007B00000814C3
:1003D0002A142222142A14085500550055AA55AA99
:1003E00055AAFF55FF55FF000000FF00101010FF39
:1003F00000141414FF001010FF00FF1010F010F094
:10040000141414FC001414F700FF0000FF00FF1484
:1004100014F404FC141417101F10101F101F1414D0
:10042000141F00101010F0000000001F101010101A
:100430001F10101010F010000000FF10101010100E
:1004400010101010FF10000000FF140000FF00FF4C
:1004500000001F10170000FC04F4141417101714E8
:1004600014F404F40000FF00F7141414141414140A
:10047000F700F7141414171410101F101F1414147D
:10048000F4141010F010F000001F101F0000001FE7
:1004900014000000FC140000F010F01010FF10FF1A
:1004A000141414FF141010101F00000000F010FFAF
:1004B000FFFFFFFFF0F0F0F0F0FFFFFF0000000093
:1004C00000FFFF0F0F0F0F0F3844443844FC4A4A17
:1004D0004A347E02020606027E027E0263554941CC
:1004E000633844443C04407E201E2006027E020203
:1004F00099A5E7A5991C2A492A1C4C7201724C3017
:100500004A4D4D303048784830BC625A463D3E49ED
:100510004949007E0101017E2A2A2A2A2A44445F91
:10052000444440514A444040444A51400000FF0185
:1005300003E080FF000008086B6B08361236243693
:10054000060F090F060000181800000010100030F8
:1005500040FF0101001F01011E00191D1712003C80
:100560003C3C3C0000000000000000817E000000D8
:10057000000000E77E180000003CE7E7FF3C0000B9
:10058000007EE7E7FFFF7E3C00008181423C0000E7
:100590003C7ECFCFFFFF7E3C3C7EF3F3FFFF7E3CF3
:1005A0003C7EE7E7FFFF7E3C0000000025002800BE
:1005B0002B000404040404040404020202020202E4
:1005C0000303030303030102040810204080010217
:1005D0000408102001020408102000000008000296
:1005E0000100000304070000000000000000F30DFC
:1005F00011241FBECFEFD8E0DEBFCDBF11E0A0E0D9
:10060000B1E0E6EEFFE102C005900D92A836B10719
:10061000D9F722E0A8E6B1E001C01D92AA3FB207D7
:10062000E1F712E0C8EFD2E004C02197FE010E947A
:10063000E60FC73FD107C9F70E94500E0C94F10F87
:100640000C9400002091240281E0213208F044C083
:10065000809100028111FCCF8091230292E090935F
:10066000000291E09093FF019FEF9093FE011092A2
:10067000FD012093FC01A3E0B2E0ECEDF1E090E09D
:10068000291331C01092DB019091DB01880F892B77
:100690008093DB018091DA01813049F51092DA0113
:1006A0008091DB018093BB008091BC0083FDF8CF7B
:1006B00085EC8093BC00809100028230E1F3809150
:1006C000FE018F3FB1F08091FE018032A1F0809158
:1006D000FE01803391F084E0109202021092240215
:1006E0001092010208953D9131939F5FC9CF85EE2D
:1006F000E0CF80E0F1CF82E0EFCF83E0EDCF90E07C
:10070000FC01E652FA4F2491FC01EA53FA4F34916E
:10071000FC01EE54FA4FE491EE23B1F0222339F0BC
:100720002330E9F090F4213001F1223011F1F0E0B2
:10073000EE0FFF1FE855FA4FA591B4918FB7F894CB
:10074000EC913E2B3C938FBF08952730A9F02830C1
:10075000C9F0243061F7809180008F7D03C08091C3
:1007600080008F7780938000E2CF84B58F7784BD3F
:10077000DECF84B58F7DFBCF8091B0008F778093E3
:10078000B000D5CF8091B0008F7DF9CF0895EEEC09
:10079000F2E0148E138E168E158E10A2178E12A2F2
:1007A00011A214A213A216A215A210A617A212A695
:1007B00011A6089585ED8093BC008091BC0084FD56
:1007C000FCCF1092000208952091B501260F332727
:1007D000331F21323105ECF420910002FC0190E03E
:1007E00080E0243069F082E00895A091B501219164
:1007F000AC014D565E4FA40FB52FB11D2C93019641
:10080000861798F38091B501680F6093B50180E079
:10081000089581E0089508950895E09192018091EE
:100820009101E81730F4F0E0EF58FE4F808190E03E
:1008300008958FEF9FEF089590919201809191011B
:100840002FEF3FEF981748F4E92FF0E0EF58FE4FF5
:10085000208130E09F5F90939201C90108958091BB
:10086000910190919201891B990B0895CF92DF928B
:10087000EF92FF920F931F93CF93DF937C01CB01F5
:100880008A0120910102222389F0EB016B01C40E41
:10089000D51ECC15DD0569F06991D701ED91FC916C
:1008A0000190F081E02DC7010995F3CF642F0E94DC
:1008B000E403C801DF91CF911F910F91FF90EF905A
:1008C000DF90CF900895CF93DF931F92CDB7DEB71F
:1008D0006983209101022223F9F020912402203221
:1008E00058F021E030E0FC013383228390E080E087
:1008F0000F90DF91CF91089580910202E82FF0E0F0
:10090000ED5FFD4F998190838F5F8093020280930A
:10091000240281E090E0ECCF61E0CE0101960E94DC
:10092000E403F7CFCF93DF938091F90291E09093A6
:10093000010280932302109202021092240260E0CE
:1009400085E292E00E946304CEECD2E06B8D85E2FA
:1009500092E00E9463046C8D85E292E00E94630441
:10096000229682E0CE3DD80789F7DF91CF910C9493
:1009700022033FB7F89480916D0190916E01A09190
:100980006F01B091700126B5A89B05C02F3F19F0EB
:100990000196A11DB11D3FBFBA2FA92F982F8827FF
:1009A000BC01CD01620F711D811D911D42E0660FDA
:1009B000771F881F991F4A95D1F708958F929F92AC
:1009C000AF92BF92CF92DF92EF92FF924B015C0108
:1009D0000E94B9046B017C010E94B9046C197D0965
:1009E0008E099F09683E734081059105A8F321E0B7
:1009F000821A9108A108B10888EEC80E83E0D81EBB
:100A0000E11CF11C81149104A104B10429F7FF90A9
:100A1000EF90DF90CF90BF90AF909F908F90089510
:100A2000AF92BF92CF92DF92EF92FF920F931F93FC
:100A3000CF93DF936C017B018B01040F151FEB013A
:100A40005E01AE18BF08C017D10759F06991D601F1
:100A5000ED91FC910190F081E02DC6010995892B63
:100A600079F7C501DF91CF911F910F91FF90EF9022
:100A7000DF90CF90BF90AF900895FC01538D448DCF
:100A8000252F30E0842F90E0821B930B541710F039
:100A9000CF96089501970895FC01918D828D981746
:100AA00061F0A28DAE0FBF2FB11D5D968C91928D1E
:100AB0009F5F9F73928F90E008958FEF9FEF08954F
:100AC000FC01918D828D981731F0828DE80FF11D18
:100AD000858D90E008958FEF9FEF0895FC01918D33
:100AE000228D892F90E0805C9F4F821B91098F732C
:100AF0009927089581E392E00E946E0521E0892BF9
:100B000009F420E0822F089580E090E0892B29F0FD
:100B10000E947A0581110C9400000895FC01A48DB7
:100B2000A80FB92FB11DA35ABF4F2C91848D90E00F
:100B300001968F739927848FA689B7892C93A089F2
:100B4000B1898C91837080648C93938D848D98137C
:100B500006C00288F389E02D80818F7D808308950F
:100B6000EF92FF920F931F93CF93DF93EC0181E0FD
:100B7000888F9B8D8C8D98131AC0E889F9898081A4
:100B800085FF15C09FB7F894EE89FF896083E889D7
:100B9000F98980818370806480839FBF81E090E0C9
:100BA000DF91CF911F910F91FF90EF900895F62E56
:100BB0000B8D10E00F5F1F4F0F731127E02E8C8DF0
:100BC0008E110CC00FB607FCFACFE889F989808135
:100BD00085FFF5CFCE010E948E05F1CFEB8DEC0F96
:100BE000FD2FF11DE35AFF4FF0829FB7F8940B8F52
:100BF000EA89FB8980818062CFCFCF93DF93EC01BC
:100C0000888D8823B9F0AA89BB89E889F9898C91F4
:100C100085FD03C0808186FD0DC00FB607FCF7CFB0
:100C20008C9185FFF2CF808185FFEDCFCE010E94B0
:100C30008E05E9CFDF91CF9108954830510580F5B9
:100C40006830710568F5DC015696EC91E23049F1A7
:100C5000E33091F1E13031F4E7E0F0E0E41BF50B33
:100C6000AB01BF01695F7F4F440F551FDC01A40F2B
:100C7000B51F5B968D919C915C9767707727E1E03B
:100C8000F0E0AF0102C0440F551F6A95E2F7BA01C8
:100C9000232BC9F0682B792B5C967C936E935B9722
:100CA0000895E7E0F0E0DF01A61BB70BBD01DF010F
:100CB000A41BB50BAD01D6CFE7E0F0E0E61BF70BC8
:100CC000BA01AF01CFCF6095709568237923E4CF47
:100CD0000895FC016370668B84819581268137813C
:100CE000613039F0633029F091878087338722871C
:100CF0000895318720879387828708952F923F92A6
:100D00004F925F926F927F928F929F92AF92BF921B
:100D1000CF92DF92EF92FF920F931F93CF93DF93C7
:100D2000CDB7DEB76A970FB6F894DEBF0FBECDBF62
:100D30009A8F898F7A8369834A01D22E18870F830D
:100D40003701BC2CDC0159962D913C915A97211505
:100D5000310509F015C118968D919C911997681766
:100D600079070CF0D7C11A968D919C9148175907B5
:100D70000CF0D0C14C2C512CB6E0CB9E600D711DF7
:100D800011247C876B87161617060CF0C3C1EA2D59
:100D9000F0E0FA87E98793E0EE0FFF1F9A95E1F7FD
:100DA000F88BEF87CF01840F951F181619060CF0EA
:100DB000B1C1A98DBA8D58968C91811104C0BFEA3A
:100DC000BD1508F4D394A98DBA8DED91FC911197BE
:100DD0000284F385E02DCD010995B5E0DB9EC001CD
:100DE0001124E981FA81FC83EB83312C212C9C01B5
:100DF00028593F4F388F2F8B4A2D50E05E8B4D8BFB
:100E0000EF89F88DE20DF31D44919E828D82D12CE5
:100E1000C12C69817A81620D731D7A8B698B842F55
:100E200090E09C8B8B8BE98DFA8DA081B18140FF86
:100E300082C0F1E0BF126FC0AF126DC01C96ED9181
:100E4000FC912F813885A4014C0D5D1D69897A893B
:100E5000898D9A8D0995EB89FC89F595E7954E2F3B
:100E60005FEFC51AD50A6D817E818D899E89680FD5
:100E7000791F7E836D8398E0C916D10481F6AFEFA8
:100E80002A1A3A0AEB81FC81E40DF51DFC83EB8301
:100E9000F5E02F16310409F0B3CF2F8138852615E0
:100EA0003705B9F0A98DBA8DED91FC91B1E0BB1277
:100EB00057C0AB1255C069817A816B5F7F4F008844
:100EC000F189E02D830128E030E0A401898D9A8D1D
:100ED0000995A98DBA8DED91FC9111970688F78936
:100EE000E02DCD016A960FB6F894DEBF0FBECDBFE0
:100EF000DF91CF911F910F91FF90EF90DF90CF90F6
:100F0000BF90AF909F908F907F906F905F904F9029
:100F10003F902F9009941E96ED91FC91EF80F884FC
:100F200009851A8592014D815E816B817C81898D55
:100F30009A8D099590CF2F8138852615370509F4AC
:100F40008ACF31E0B31207C0A31205C01C96ED9101
:100F5000FC91930178CF1E96ED91FC917301E0CF47
:100F60006B857C85641975090684F785E02D73010E
:100F70000F8518899201A401898D9A8D0995A9CFB1
:100F8000F90134969491329745915491D91AB7E06A
:100F9000DB9E400D511D1124F901259134913C8BAC
:100FA0002B8BFA0125903490FA0132967490319689
:100FB0003491398B329664903196449041E04C15CF
:100FC00018F04A1508F07FC0662D062C000C770B30
:100FD0007C836B83842D042C000C990B9E838D8362
:100FE000A98DBA8DED91FC9111970284F385E02DC6
:100FF000CD010995512CD12CC12CEA2DF0E0FA87B6
:10100000E9872B2D30E03C872B87A401440D511D2F
:1010100047FC5A95588F4F8B69817A81660D711DF7
:1010200067FC7A957E876D877989C71608F051CF5E
:101030002C2D30E04D815E81420F531FA985BA856A
:101040004A9FC0014B9F900D5A9F900D1124FC01A7
:10105000E80DF91DF88BEF87852D612C4F89588D90
:10106000420F531F5E8B4D8B671408F050C0442411
:101070004394480E877041F4C1010196EB89FC89C5
:10108000E20DF31DD4901C01D7FE19C0A98DBA8DB5
:10109000ED91FC91662D70E0B1E0BB1219C0AB126E
:1010A00017C02D853E85620F731F0484F585E02DE2
:1010B0002F8138854D895E89898D9A8D0995DD0C42
:1010C0006394842DD1CF1E821D821C821B8288CF07
:1010D0004B815C81640F751FAB85BC856A9FC00125
:1010E0006B9F900D7A9F900D112469817A81680F12
:1010F000791F0684F785E02DEF80F88409851A852D
:101100009D014F855889898D9A8D0995D8CF570CA7
:10111000C3948ACF6A960FB6F894DEBF0FBECDBFD8
:10112000DF91CF911F910F91FF90EF90DF90CF90C3
:10113000BF90AF909F908F907F906F905F904F90F7
:101140003F902F9008958F929F92AF92CF92EF92FF
:10115000FF920F931F93CF93DF93EC01262F898D7E
:101160009A8D009709F051C06A30D1F41D861C8613
:101170008D8948E0849F900111248E859F85820F80
:10118000931F9F878E8781E090E0DF91CF911F9121
:101190000F91FF90EF90CF90AF909F908F90089518
:1011A0006D3089F3CC88AD888F898823C1F08C8518
:1011B0009D8536E0C39E800D911D1124488559857B
:1011C0004817590764F44E855F851D861C8638E0F4
:1011D000A39EC0011124840F951F9F878E87EA88E4
:1011E000FB88088919894E855F856C857D85CE01D0
:1011F0000E947E062C898C859D8546E0249F800D6B
:10120000911D11249D878C87BECF6A3069F41D869D
:101210001C86FC013696E4912D898E859F85E29F80
:10122000800D911D1124ADCF6D3009F4ACCFFC01C0
:1012300034963491631708F4A6CF3196E491E617FB
:1012400008F4A1CFFC01329685909490462F431B61
:10125000342F47E0349F800C911C1124F401329606
:1012600034913196E4913323A9F1EE2399F1CC889E
:10127000F4013596E491AD884F89442301F10E2E97
:10128000000CFF0BE30FF11DCE9EA001CF9E500D71
:1012900011246C857D85460F571F688579856417F5
:1012A00075076CF44E855F851D861C86FC0136969D
:1012B000E491AE9E400D511D11245F874E87EA8850
:1012C000FB88088919894E855F856C857D85CE01EF
:1012D0000E947E06F4013496E4912C898C859D85CC
:1012E000E29F800D911D11248DCF6F927F928F927E
:1012F0009F92AF92BF92CF92DF92EF92FF920F93A5
:101300001F93CF93DF93EC016B015A013901480120
:10131000E881F9810284F385E02D0995E881F9815E
:101320000288F389E02D87019301A501B601CE0162
:101330000995A501480D591D41505109E881F981D0
:101340000288F389E02D9301B601CE010995E88169
:10135000F9810088F189E02D9401A501B601CE0143
:101360000995C60CD71CB60161507109E881F98155
:101370000088F189E02D9401A501CE010995E8814D
:10138000F9810688F789E02DCE01DF91CF911F9179
:101390000F91FF90EF90DF90CF90BF90AF909F9014
:1013A0008F907F906F9009946F927F928F929F920F
:1013B000AF92BF92CF92DF92EF92FF920F931F9363
:1013C000CF93DF935C01EB016A014901380187018A
:1013D000DC01ED91FC916217730719F5641675062F
:1013E0002CF0962D872D3A01C92ED82E960126195C
:1013F00037092F5F3F4F048CF58DE02DA301BE010F
:10140000C5010995DF91CF911F910F91FF90EF904A
:10141000DF90CF90BF90AF909F908F907F906F9014
:1014200008954615570591F42617370724F0892D9E
:101430004B01C22FD82F9E01281939092F5F3F4F2A
:10144000068CF78DE02DA601B401DACF0284F38576
:10145000E02D0995D501ED91FC910488F589E02DE9
:1014600083019401A601BE01C5010995D501ED9145
:10147000FC910688F789E02DC501DF91CF911F917E
:101480000F91FF90EF90DF90CF90BF90AF909F9023
:101490008F907F906F900994EF92FF920F931F931C
:1014A000DC011A960D911C911B9718962D913C9179
:1014B0001997ED91FC9100A0F1A1E02D7B0150E086
:1014C00040E070E060E009951F910F91FF90EF9070
:1014D00008954F925F926F927F928F929F92AF92F8
:1014E000BF92CF92DF92EF92FF920F931F93CF9311
:1014F000DF936C012B015A0139014801DC01ED91A8
:10150000FC910284F385E02D0995E201640C751CC1
:10151000D601ED91FC91C615D7055CF40088F189E0
:10152000E02D87019401A501BE01C6010995219610
:10153000EFCF0688F789E02DC601DF91CF911F918B
:101540000F91FF90EF90DF90CF90BF90AF909F9062
:101550008F907F906F905F904F9009948F929F92A1
:10156000AF92BF92CF92DF92EF92FF920F931F93B1
:10157000CF93DF93EC015B014A016901E881F981B6
:101580000284F385E02D099595012C0D3D1D215018
:101590003109E881F9810488F589E02D7801840119
:1015A000A401B501CE010995E881F9810688F78982
:1015B000E02DCE01DF91CF911F910F91FF90EF9021
:1015C000DF90CF90BF90AF909F908F9009948F92B3
:1015D0009F92AF92BF92CF92DF92EF92FF920F93C2
:1015E0001F93CF93DF93EC015B014A0169017801FE
:1015F000E881F9810284F385E02D0995C80CD91C96
:10160000860101501109E881F9810488F589E02DEE
:101610009501A401B501CE010995E881F9810688FB
:10162000F789E02DCE01DF91CF911F910F91FF90AF
:10163000EF90DF90CF90BF90AF909F908F900994E4
:10164000EF92FF920F931F93DC01ED91FC9100A0AC
:10165000F1A1E02D09951F910F91FF90EF90089552
:101660000F931F93DC01ED91FC91068CF78DE02D1B
:1016700009951F910F9108950F931F93DC01ED9130
:10168000FC91048CF58DE02D09951F910F91089523
:10169000DC01ED91FC910084F185E02D0994CF925D
:1016A000DF92FF920F931F93CF93DF936C01F12C86
:1016B00010E000E0D0E0C0E0FF0C209711F4F6014C
:1016C000F490F7FE08C021E030E0A801BE018EECE6
:1016D00092E00E94480B2196C830D10569F70F5F50
:1016E0001F4FFFEFCF1ADF0A0830110519F7DF91FE
:1016F000CF911F910F91FF90DF90CF9008952F927F
:101700003F924F925F926F927F928F929F92AF9291
:10171000BF92CF92DF92EF92FF920F931F93CF93DE
:10172000DF9300D000D000D0CDB7DEB73C016A0116
:101730003E832D83FC82EB825801A41AB50AB7FEC2
:1017400003C0B194A194B1088D809E80861A970A37
:1017500097FE03C09194819491088A149B045CF0D5
:10176000902F812F0D811E819D838E839C2D8D2D29
:101770006B01692F782F0C151D055CF09D818E8102
:101780007E836D83692F782F902F812F8601C92E3C
:10179000D82E1601201A310A2B012D813E81421AC2
:1017A000530A57FE03C0519441945108710137FE0A
:1017B00003C03FEFE31AF30AF594E7948D819E810D
:1017C000861797075CF5A1E0B0E0BA83A983C0163D
:1017D000D1064CF1D301ED91FC910484F585E02D07
:1017E0002B813C81A8016D817E818A149B041CF0B1
:1017F0004D815E81B801C3010995E418F508F7FE33
:101800000AC02D813E8189819A81280F391F3E832C
:101810002D83E20CF31C0F5F1F4FD9CF2FEF3FEF4B
:101820003A832983D4CF26960FB6F894DEBF0FBE35
:10183000CDBFDF91CF911F910F91FF90EF90DF907F
:10184000CF90BF90AF909F908F907F906F905F9060
:101850004F903F902F900895089590E080E0089574
:101860000E94EC0F1F920F920FB60F9211242F932C
:101870003F934F935F936F937F938F939F93AF9318
:10188000BF93EF93FF938091B900887F803609F46E
:101890004AC0F0F5883209F4A7C018F5803109F480
:1018A0009BC0B8F4882309F4F9C0883009F494C0C7
:1018B000FF91EF91BF91AF919F918F917F916F9128
:1018C0005F914F913F912F910F900FBE0F901F90FE
:1018D0001895883109F488C0803251F78093FE0151
:1018E00014C0803409F49DC040F48033B9F38833C8
:1018F000F9F68093FE0185ECB0C0803509F485C00F
:10190000883509F496C0883499F60E94DA03D0CF5E
:10191000883909F48CC038F5883729F050F48836B6
:1019200011F0803729F683E0809300021092D901EC
:1019300057C0883809F47BC0803919F0803809F025
:10194000B7CF8091D901803208F071C0E091D90100
:1019500081E08E0F8093D9018091BB00F0E0E754C5
:10196000FE4F80833DC0803B39F0E0F4803A09F4BB
:1019700079C0883A09F09CCF84E0809300021092ED
:10198000B6011092B501E091B301F091B40109954F
:101990008091B50181110FC081E08093B501109253
:1019A000930109C0803C09F4A6CF883C09F4A3CF79
:1019B000883B09F07DCFE091B60181E08E0F8093E6
:1019C000B601F0E0ED56FE4F80818093BB00909110
:1019D000B6018091B50129C08091DB018093BB00E5
:1019E00085EC8093BC0064CF9091FD018091FC0157
:1019F000981758F5E091FD0181E08E0F8093FD016D
:101A0000F0E0E452FE4F8081E9CFE091FD0181E0FA
:101A10008E0F8093FD018091BB00F0E0E452FE4FF9
:101A200080839091FD018091FC019817C8F285E8B0
:101A3000D8CFE091FD0181E08E0F8093FD01809170
:101A4000BB00F0E0E452FE4F80838091FF018111E2
:101A50005CCF81E08093DA0184EA8093BC0010922D
:101A6000000226CF85EC8093BC001092000280918A
:101A7000D901803230F4E091D901F0E0E754FE4F13
:101A800010826091D90170E0E091B701F091B80146
:101A900089EB91E009951092D9010ACF1092FE01CD
:101AA00034CF1F920F920FB60F9211242F933F93B2
:101AB0008F939F93AF93BF938091690190916A0137
:101AC000A0916B01B0916C013091680123E0230F6C
:101AD0002D3758F50196A11DB11D20936801809303
:101AE000690190936A01A0936B01B0936C0180919E
:101AF0006D0190916E01A0916F01B09170010196FE
:101B0000A11DB11D80936D0190936E01A0936F0193
:101B1000B0937001BF91AF919F918F913F912F91A1
:101B20000F900FBE0F901F90189526E8230F029676
:101B3000A11DB11DD2CF1F920F920FB60F9211248B
:101B40002F933F934F935F936F937F938F939F93C5
:101B5000AF93BF93EF93FF9381E392E00E948E05D2
:101B6000FF91EF91BF91AF919F918F917F916F9175
:101B70005F914F913F912F910F900FBE0F901F904B
:101B800018951F920F920FB60F9211242F938F93D7
:101B90009F93EF93FF93E0914102F0914202808185
:101BA000E0914702F091480282FD1BC09081809134
:101BB0004A028F5F8F7320914B02821741F0E091B0
:101BC0004A02F0E0EF5CFD4F958F80934A02FF914F
:101BD000EF919F918F912F910F900FBE0F901F90BB
:101BE00018958081F4CFE5E2F2E01382128288EE4C
:101BF00093E0A0E0B0E084839583A683B78324E0DC
:101C000031E031832083E1E3F2E0138212828483A6
:101C10009583A683B78386E191E09183808385ECE9
:101C200090E09587848784EC90E09787868780ECA6
:101C300090E0918B808B81EC90E0938B828B82EC97
:101C400090E0958B848B86EC90E0978B868B118E41
:101C5000128E138E148EEEECF2E01382128288E064
:101C600090E0958384839783868391878087938789
:101C70008287168A158614861786168681E0858BDC
:101C8000848B2FEF3FEF338B228B318B208B878B15
:101C9000108E128E118E88E291E0918380830895D8
:101CA000789484B5826084BD84B5816084BD85B537
:101CB000826085BD85B5816085BD80916E00816043
:101CC00080936E00109281008091810082608093E9
:101CD00081008091810081608093810080918000EB
:101CE0008160809380008091B10084608093B10016
:101CF0008091B00081608093B00080917A00846010
:101D000080937A0080917A00826080937A0080913B
:101D10007A00816080937A0080917A008068809355
:101D20007A001092C100E0914102F091420282E0FB
:101D30008083E0913D02F0913E021082E0913F02EB
:101D4000F09140028FEC808310924902E0914502AD
:101D5000F091460286E08083E0914302F0914402D4
:101D6000808180618083E0914302F0914402808110
:101D700088608083E0914302F09144028081806812
:101D80008083E0914302F091440280818F7D8083C3
:101D900043E150E060E571E081E392E00E941005CC
:101DA00042E050E064E671E081E392E00E941005B9
:101DB00080E78093F90210929201109291011092A3
:101DC00002021092240210920002C1E0C093FF01AF
:101DD0001092DA0182E10E947F0383E10E947F0377
:101DE0008091B9008E7F8093B9008091B9008D7F7A
:101DF0008093B90088E48093B80085E48093BC00A8
:101E00008BE094E09093B4018093B3018CE094E074
:101E10009093B8018093B7018091F902C0930102B9
:101E200080932302109202021092240261E285E262
:101E300092E00E9463040E9422038091F902C09301
:101E4000010280932302109202021092240261E8A0
:101E500085E292E00E9463040E9422038091F902CD
:101E6000C093010280932302109202021092240276
:101E70006FEE85E292E00E9463040E942203C0E0BC
:101E8000D0E00E94C70380EA95E00E944F0B0E94B9
:101E9000920468EB7BE080E090E00E94DE040E9408
:101EA000C70388E995E00E944F0B0E94920464EFFB
:101EB00071E080E090E00E94DE040E94C70380E9A8
:101EC00095E00E944F0B0E94920464EF71E080E065
:101ED00090E00E94DE040E94C70388E895E00E941B
:101EE0004F0B0E9492046CE271E080E090E00E944F
:101EF000DE040E94C70380E895E00E944F0B0E9419
:101F0000920464E670E080E090E00E94DE040E94AB
:101F1000C70388E795E00E944F0B0E94920464E695
:101F200070E080E090E00E94DE040E94C70380E73A
:101F300095E00E944F0B0E94920464E670E080E0FE
:101F400090E00E94DE040E94C70388E695E00E94AC
:101F50004F0B0E94920464E670E080E090E00E94E3
:101F6000DE040E94C70380E795E00E944F0B0E94A9
:101F7000920464E670E080E090E00E94DE040E943B
:101F8000C70388E795E00E944F0B0E94920464E625
:101F900070E080E090E00E94DE040E94C70380E8C9
:101FA00095E00E944F0B0E94920464E670E080E08E
:101FB00090E00E94DE04209709F463CF0E947A0526
:101FC000882309F45ECF0E9400005BCFEE0FFF1F55
:101FD0000590F491E02D099481E090E0F8940C9440
:061FE000F10FF894FFCFA1
:101FE60000000000630436042D0CC6032F041C04F5
:101FF6000D0400000000B00510053D05FD056E0549
:102006004C05600500000000A30810052D0C2C0CE3
:102016001D06C603480B200B3C0B300B7F0BC6037B
:1020260069066806E70AAE0A690A4C0AD409750900
:10203600387838204C4544204D61747269782054B4
:08204600657374000D0A00002F
:00000001FF
