:100000000C945D000C947A000C947A000C947A00A5
:100010000C947A000C947A000C947A000C94D3021D
:100020000C947A000C947A000C947A000C947A0068
:100030000C947A000C947A000C947A000C947A0058
:100040000C9489020C947A000C947A000C947A0037
:100050000C947A000C947A000C947A000C947A0038
:100060000C947A000C947A00000000080002010051
:100070000003040700000000000000000200000070
:1000800000250028002B0000000000240027002A83
:100090000004040404040404040202020202020331
:1000A000030303030301020408102040800102043B
:1000B0000810200102040810200011241FBECFEFF9
:1000C000D8E0DEBFCDBF11E0A0E0B1E0E4E0F9E0B0
:1000D00002C005900D92A230B107D9F721E0A2E04D
:1000E000B1E001C01D92AC31B207E1F70E942F03CD
:1000F0000C9480040C94000090E0FC01EB55FF4F41
:1001000024918F569F4FFC018491882399F090E0B1
:10011000880F991FFC01E957FF4FA591B491FC018D
:10012000E358FF4F859194918FB7F894EC91E22BAF
:10013000EC938FBF0895CF92DF92EF92FF92CF930F
:100140006B0190910001891749F09F3F09F442C06B
:10015000CF91FF90EF90DF90CF900895ECE7F0E023
:10016000C491C7FDF5CF0E947C00F12CE12CCC237B
:10017000D9F0960150E040E0C23009F0A3C07A0106
:1001800060E970ED83E090E00E943F04BA01A901AC
:10019000415051096109710993E04F3F51056105D3
:1001A000710509F00CF4CAC068E478EE81E090E0D3
:1001B000A70196010E943F04BA01A90141505109CB
:1001C0006109710994E0C111B9C085B5887F836068
:1001D00085BDC0C080930001ECE7F0E0C491CF3F43
:1001E00009F4B6CFC13031F140F0C23009F444C057
:1001F000C7FDAECF0E947C00BCCF14BC15BC94B52B
:10020000926094BD95B5916095BD282F30E0F901BD
:10021000EF56FF4FE491F0E0EE0FFF1FE358FF4F62
:1002200045915491F901EB55FF4FE491E0930F0193
:10023000C0E099CF109280001092810090918100CF
:1002400098609093810090918100916090938100DB
:10025000282F30E0F901EF56FF4FE491F0E0EE0F68
:10026000FF1FE358FF4F45915491F901EB55FF4FA4
:10027000E491E0930E0177CF1092B0001092B1009C
:100280009091B00092609093B0009091B100916015
:100290009093B100282F30E0F901EF56FF4FE49121
:1002A000F0E0EE0FFF1FE358FF4F4591549150933C
:1002B0000D0140930C01F901EB55FF4FE491E093E0
:1002C0000B0151CF60E072E18AE790E00E943F04A9
:1002D000BA01A9014150510961097109C130A1F563
:1002E00080918100887F8160809381005093890094
:1002F000409388008FEF9FEFDC018093140190936F
:100300001501A0931601B093170180916F008260D0
:1003100080936F001DCF4093B3008FEF9FEFDC0100
:100320008093100190931101A0931201B0931301D7
:10033000809170008260809370000ACF8091B1003C
:10034000887F892B8093B100C13081F2C23019F3CC
:10035000C111FECE47BD8FEF9FEFDC0180931801E6
:1003600090931901A0931A01B0931B0180916E0024
:10037000826080936E00ECCE3FB7F89480910701C5
:1003800090910801A0910901B0910A0126B5A89B9E
:1003900005C02F3F19F00196A11DB11D3FBFBA2F17
:1003A000A92F982F8827BC01CD01620F711D811DD7
:1003B000911D42E0660F771F881F991F4A95D1F75C
:1003C00008958F929F92AF92BF92CF92DF92EF9259
:1003D000FF924B015C010E94BC016B017C010E94F9
:1003E000BC016C197D098E099F09683E7340810527
:1003F0009105A8F321E0821A9108A108B10888EEBE
:10040000C80E83E0D81EE11CF11C81149104A104E4
:10041000B10429F7FF90EF90DF90CF90BF90AF909D
:100420009F908F9008959091000189130DC0ECE783
:10043000F0E0E4919FEF90930001E13009F431C0C6
:1004400068F1E23009F433C090E0FC01E859FF4F55
:100450002491FC01EB55FF4F3491FC01EF56FF4F07
:10046000E491EE23D1F0222351F0233009F43AC075
:1004700078F5213009F43CC0223009F43DC0F0E0A9
:10048000EE0FFF1FE358FF4FA591B4918FB7F8947B
:10049000EC9130953E233C938FBF089510926E00EF
:1004A000D3CF90916F009D7F90936F00CDCF9091AF
:1004B00070009D7F9093700091E09093B0009091B8
:1004C000B100987F94609093B1001092B300BCCFBC
:1004D0002730A9F02830C9F0243089F680918000B7
:1004E0008F7D03C0809180008F7780938000C7CF7D
:1004F00084B58F7784BDC3CF84B58F7DFBCF8091CA
:10050000B0008F778093B000BACF8091B0008F7D1C
:10051000F9CF1F920F920FB60F9211242F933F9392
:100520008F939F93AF93BF938091030190910401A8
:10053000A0910501B09106013091020123E0230F43
:100540002D3758F50196A11DB11D2093020180930E
:10055000030190930401A0930501B09306018091DB
:10056000070190910801A0910901B0910A0101963B
:10057000A11DB11D8093070190930801A09309016B
:10058000B0930A01BF91AF919F918F913F912F91AD
:100590000F900FBE0F901F90189526E8230F02961C
:1005A000A11DB11DD2CF1F920F920FB60F92112431
:1005B0002F933F934F935F936F937F938F939F936B
:1005C000AF93BF93EF93FF9380911001909111012E
:1005D000A0911201B0911301892B8A2B8B2BD1F1A1
:1005E00090910B01E0910C01F0910D018081892720
:1005F00080838091100190911101A0911201B0911E
:100600001301181619061A061B069CF48091100196
:1006100090911101A0911201B09113010197A109CC
:10062000B1098093100190931101A0931201B0932E
:100630001301FF91EF91BF91AF919F918F917F91A6
:100640006F915F914F913F912F910F900FBE0F903F
:100650001F901895809100010E941302EACF7894B0
:1006600084B5826084BD84B5816084BD85B58260B7
:1006700085BD85B5816085BD80916E008160809368
:100680006E001092810080918100826080938100D1
:1006900080918100816080938100809180008160E1
:1006A000809380008091B10084608093B10080913C
:1006B000B00081608093B00080917A008460809364
:1006C0007A0080917A00826080937A0080917A002B
:1006D000816080937A0080917A00806880937A00AC
:1006E0001092C10089E00E947C00C0E0D0E063E984
:1006F00072E089E00E949B006EEE72E080E090E084
:100700000E94E1016CED73E089E00E949B006EEEB7
:1007100072E080E090E00E94E10165E574E089E02C
:100720000E949B006EEE72E080E090E00E94E1018A
:1007300063E972E089E00E949B006EEE72E080E067
:1007400090E00E94E10164EE72E089E00E949B006B
:100750006CE271E080E090E00E94E10163E972E008
:1007600089E00E949B006EEE72E080E090E00E94C3
:10077000E1016AE272E089E00E949B006AEF70E0AA
:1007800080E090E00E94E10189E00E94130264E6AB
:1007900070E080E090E00E94E1016AE272E089E0AE
:1007A0000E949B006AEF70E080E090E00E94E1010F
:1007B0006BE472E089E00E949B0060E971E080E0F8
:1007C00090E00E94E10163E972E089E00E949B00F1
:1007D0006EEE72E080E090E00E94E10189E00E940C
:1007E000130264EF71E080E090E00E94E10163E9B0
:1007F00072E089E00E949B006EEE72E080E090E083
:100800000E94E1016CED73E089E00E949B006AE8C0
:1008100072E080E090E00E94E10165E574E089E02B
:100820000E949B0064EF71E080E090E00E94E10193
:1008300067E974E089E00E949B006AEF70E080E065
:1008400090E00E94E10165E574E089E00E949B0070
:1008500064EF71E080E090E00E94E1016BE472E0FF
:1008600089E00E949B0068EE73E080E090E00E94C7
:10087000E101209709F43BCF0E94000038CF052EFC
:1008800097FB1EF400940E94560457FD07D00E9467
:100890005E0407FC03D04EF40C945604509540952A
:1008A000309521953F4F4F4F5F4F0895909580951C
:1008B000709561957F4F8F4F9F4F0895A1E21A2E3B
:1008C000AA1BBB1BFD010DC0AA1FBB1FEE1FFF1FF4
:1008D000A217B307E407F50720F0A21BB30BE40B44
:1008E000F50B661F771F881F991F1A9469F760958B
:1008F0007095809590959B01AC01BD01CF01089545
:04090000F894FFCF99
:02090400FF00F2
:00000001FF
