:100000000C945D000C947A000C947A000C947A00A5
:100010000C947A000C947A000C947A000C94B2023E
:100020000C947A000C947A000C947A000C947A0068
:100030000C947A000C947A000C947A000C947A0058
:100040000C9468020C947A000C947A000C947A0058
:100050000C947A000C947A000C947A000C947A0038
:100060000C947A000C947A00000000080002010051
:100070000003040700000000000000000200000070
:1000800000250028002B0000000000240027002A83
:100090000004040404040404040202020202020331
:1000A000030303030301020408102040800102043B
:1000B0000810200102040810200011241FBECFEFF9
:1000C000D8E0DEBFCDBF11E0A0E0B1E0E2E4F8E0AF
:1000D00002C005900D92A230B107D9F721E0A2E04D
:1000E000B1E001C01D92AC31B207E1F70E94750387
:1000F0000C941F040C94000090E0FC01EB55FF4FA2
:1001000024918F569F4FFC018491882399F090E0B1
:10011000880F991FFC01E957FF4FA591B491FC018D
:10012000E358FF4F859194918FB7F894EC91E22BAF
:10013000EC938FBF08958F929F92AF92BF92CF9210
:10014000DF92EF92FF92CF936B019091000189179C
:1001500069F09F3F09F46DC0CF91FF90EF90DF9061
:10016000CF90BF90AF909F908F900895ECE7F0E014
:10017000C491C7FDF1CF0E947C004601B12CA12C97
:10018000CC23D1F0F12CE12CC23009F0CAC04601D9
:10019000570164E274EF80E090E0A70196010E94AD
:1001A000DE03215031094109510995E02F3F310506
:1001B0004105510579F174F160E072E18AE790E060
:1001C000A50194010E94DE0369017A0162E17AE7E8
:1001D00080E090E0A50194010E94DE0321503109E6
:1001E00041095109CC2309F4EDC096E02F3F3105B8
:1001F0004105510579F074F08AE0F594E794D794BD
:10020000C7948A95D1F7A701960121503109410978
:10021000510997E08091B100887F892B8093B100CC
:10022000C13009F4A7C0C23009F4B9C0C11194CFDC
:10023000E2C080930001ECE7F0E0C491CF3F09F405
:100240008BCFC13031F140F0C23009F444C0C7FD5A
:1002500083CF0E947C0096CF14BC15BC94B59260ED
:1002600094BD95B5916095BD282F30E0F901EF560A
:10027000FF4FE491F0E0EE0FFF1FE358FF4F459171
:100280005491F901EB55FF4FE491E0930F01C0E069
:1002900072CF10928000109281009091810098603E
:1002A0009093810090918100916090938100282F1C
:1002B00030E0F901EF56FF4FE491F0E0EE0FFF1F41
:1002C000E358FF4F45915491F901EB55FF4FE491ED
:1002D000E0930E0150CF1092B0001092B1009091B7
:1002E000B00092609093B0009091B10091609093B3
:1002F000B100282F30E0F901EF56FF4FE491F0E014
:10030000EE0FFF1FE358FF4F4591549150930D019D
:1003100040930C01F901EB55FF4FE491E0930B0181
:100320002ACF60E072E18AE790E0A70196010E947F
:10033000DE03215031094109510991E021153105B0
:1003400081E0480751056CF068E478EE81E090E0C8
:10035000A70196010E94DE0321503109410951098C
:1003600093E0C13009F05CCF80918100887F892BB8
:100370008093810030938900209388008FEF9FEF56
:10038000DC018093140190931501A0931601B093A2
:10039000170180916F00826080936F00DDCE209303
:1003A000B3008FEF9FEFDC01809310019093110158
:1003B000A0931201B093130180917000826080932A
:1003C0007000CACE94E02F3F31054105510579F008
:1003D00074F09AE0F594E794D794C7949A95D1F77E
:1003E000A7019601215031094109510995E085B5D0
:1003F000887F892B85BD27BD8FEF9FEFDC01809320
:10040000180190931901A0931A01B0931B018091D8
:100410006E00826080936E009FCE3FB7F89480910B
:10042000070190910801A0910901B0910A0126B538
:10043000A89B05C02F3F19F00196A11DB11D3FBF1C
:10044000BA2FA92F982F8827BC01CD01620F711DEB
:10045000811D911D42E0660F771F881F991F4A95E5
:10046000D1F708958F929F92AF92BF92CF92DF9271
:10047000EF92FF920E940D024B015C0188E8C82EAA
:1004800083E1D82EE12CF12C0E940D026819790924
:100490008A099B09683E734081059105A8F321E014
:1004A000C21AD108E108F10888EE880E83E0981E90
:1004B000A11CB11CC114D104E104F10429F7FF907F
:1004C000EF90DF90CF90BF90AF909F908F90089566
:1004D0001F920F920FB60F9211242F933F938F9379
:1004E0009F93AF93BF938091030190910401A091DA
:1004F0000501B09106013091020123E0230F2D3751
:1005000058F50196A11DB11D2093020180930301AE
:1005100090930401A0930501B09306018091070117
:1005200090910801A0910901B0910A010196A11DC5
:10053000B11D8093070190930801A0930901B09326
:100540000A01BF91AF919F918F913F912F910F9091
:100550000FBE0F901F90189526E8230F0296A11D3D
:10056000B11DD2CF1F920F920FB60F9211242F936D
:100570003F938F939F93AF93BF93EF93FF9380919C
:10058000100190911101A0911201B0911301892BDA
:100590008A2B8B2BB1F190910B01E0910C01F09122
:1005A0000D01808189278083809110019091110134
:1005B000A0911201B0911301181619061A061B0614
:1005C0009CF48091100190911101A0911201B091C1
:1005D00013010197A109B1098093100190931101B2
:1005E000A0931201B0931301FF91EF91BF91AF91CE
:1005F0009F918F913F912F910F900FBE0F901F9061
:10060000189580910001ECE7F0E0E4919FEF909362
:100610000001E13009F431C068F1E23009F433C07F
:1006200090E0FC01E859FF4F2491FC01EB55FF4F8E
:100630003491FC01EF56FF4FE491EE23A9F22223FF
:1006400051F0233009F43AC078F5213009F43CC068
:10065000223009F43DC0F0E0EE0FFF1FE358FF4FDA
:10066000A591B4918FB7F894EC9130953E233C93CB
:100670008FBFBACF10926E00D3CF90916F009D7F45
:1006800090936F00CDCF909170009D7F90937000FC
:1006900091E09093B0009091B100987F9460909316
:1006A000B1001092B300BCCF2730A9F02830C9F0B8
:1006B000243089F6809180008F7D03C08091800076
:1006C0008F7780938000C7CF84B58F7784BDC3CFE9
:1006D00084B58F7DFBCF8091B0008F778093B00081
:1006E000BACF8091B0008F7DF9CF789484B58260C5
:1006F00084BD84B5816084BD85B5826085BD85B5C6
:10070000816085BD80916E00816080936E00109243
:1007100081008091810082608093810080918100BE
:10072000816080938100809180008160809380004F
:100730008091B10084608093B1008091B0008160AD
:100740008093B00080917A00846080937A008091D9
:100750007A00826080937A0080917A008160809331
:100760007A0080917A00806880937A001092C100AC
:1007700089E00E947C00C0E0D0E06CE270E089E09B
:100780000E949B000E94320267E570E089E00E94AF
:100790009B000E9432026FEA70E089E00E949B0099
:1007A0000E9432026DE571E089E00E949B000E9488
:1007B0003202209711F30E940000DFCF052E97FB35
:1007C0001EF400940E94F50357FD07D00E94FD031C
:1007D00007FC03D04EF40C94F503509540953095EA
:1007E00021953F4F4F4F5F4F08959095809570959D
:1007F00061957F4F8F4F9F4F0895A1E21A2EAA1B3C
:10080000BB1BFD010DC0AA1FBB1FEE1FFF1FA217C0
:10081000B307E407F50720F0A21BB30BE40BF50BBD
:10082000661F771F881F991F1A9469F76095709546
:10083000809590959B01AC01BD01CF010895F8947E
:02084000FFCFE8
:02084200FF00B5
:00000001FF
