:100000000C9463000C948B000C948B000C948B006C
:100010000C948B000C948B000C948B000C94680453
:100020000C948B000C948B000C948B000C948B0024
:100030000C948B000C948B000C948B000C948B0014
:100040000C941E040C948B000C94EA040C94C404CD
:100050000C948B000C948B000C948B000C948B00F4
:100060000C948B000C948B000000000023002600F1
:10007000290000000000240027002A0000000008DA
:10008000000201000003040700000000000000005F
:10009000010204081020408001020408102001021F
:1000A0000408102000000000250028002B00040494
:1000B0000404040404040202020202020303030310
:1000C00003030200510A11241FBECFEFD8E0DEBFA8
:1000D000CDBF11E0A0E0B1E0EEE8F5E102C005908F
:1000E0000D92A631B107D9F721E0A6E1B1E001C038
:1000F0001D92A63DB207E1F710E0C3E6D0E004C0D0
:100100002197FE010E94BF0AC236D107C9F70E949B
:1001100061050C94C50A0C94000090E0FC01E458C1
:10012000FF4F2491FC01E057FF4F3491FC01E25551
:10013000FF4FE491EE23C9F0222339F0233001F17F
:10014000A8F4213019F1223029F1F0E0EE0FFF1F61
:10015000EC55FF4FA591B4918FB7F894EC916111D4
:1001600026C030953E233C938FBF08952730A9F0D9
:100170002830C9F0243049F7809180008F7D03C07A
:10018000809180008F7780938000DFCF84B58F7758
:1001900084BDDBCF84B58F7DFBCF8091B0008F779E
:1001A0008093B000D2CF8091B0008F7DF9CF3E2BED
:1001B000DACFCF93DF9390E0FC01E057FF4F24911B
:1001C00082559F4FFC0184918823D1F090E0880FE5
:1001D000991FFC01EE58FF4FA591B491FC01EC551D
:1001E000FF4FC591D49161110EC09FB7F8948C91C7
:1001F000E22FE0958E238C932881E223E8839FBF32
:10020000DF91CF9108958FB7F894EC91E22BEC93A6
:100210008FBFF6CFCF92DF92EF92FF92CF936B0119
:1002200090910001891749F09F3F09F485C0CF9153
:10023000FF90EF90DF90CF900895E2ECF0E0C49152
:10024000C7FDF5CF61E00E94D900F12CE12CCC2351
:10025000D9F0960150E040E0C23009F0E8C07A01E0
:1002600060E970ED83E090E00E94A00ABA01A90164
:10027000415051096109710983E04F3F5105610502
:10028000710509F00CF419C168E478EE81E090E0A2
:10029000A70196010E94A00ABA01A9014150510983
:1002A00061097109CC2309F4FEC0C23009F0BDC058
:1002B0004F3F51056105710509F00CF4FDC064E282
:1002C00074EF80E090E0A70196010E94A00ABA01B5
:1002D000A901415051096109710985E04F3F51055C
:1002E0006105710509F008F4E8C062E17AE780E091
:1002F00090E0A70196010E94A00ABA01A90141500D
:10030000510961097109C111E5C094E085B5887F83
:10031000892B85BD47BD8FEF9FEFDC018093D20114
:100320009093D301A093D401B093D50180916E0036
:10033000826080936E007BCF80930001E2ECF0E05E
:10034000C491CF3F09F473CFC13039F148F0C230C6
:1003500009F445C0C7FD6BCF61E00E94D90079CF99
:1003600014BC15BC94B5926094BD95B5916095BDD3
:10037000282F30E0F901E255FF4FE491F0E0EE0F55
:10038000FF1FEC55FF4F45915491F901E057FF4F86
:10039000E491E093C901C0E055CF10928000109223
:1003A00081009091810098609093810090918100EC
:1003B000916090938100282F30E0F901E255FF4FC2
:1003C000E491F0E0EE0FFF1FEC55FF4F4591549183
:1003D000F901E057FF4FE491E093C80133CF109249
:1003E000B0001092B1009091B00092609093B00074
:1003F0009091B10091609093B100282F30E0F90105
:10040000E255FF4FE491F0E0EE0FFF1FEC55FF4F78
:10041000459154915093C7014093C601F901E057AB
:10042000FF4FE491E093C5010DCF84E057CF60E02A
:1004300072E18AE790E00E94A00ABA01A901415046
:10044000510961097109C130F1F580918100887FFE
:1004500081608093810050938900409388008FEFE2
:100460009FEFDC018093CE019093CF01A093D00148
:10047000B093D10180916F00826080936F00D7CEDE
:100480004093B3008FEF9FEFDC018093CA019093FC
:10049000CB01A093CC01B093CD018091700082601C
:1004A00080937000C4CE93E04F3F51056105710504
:1004B00011F00CF01ACF2ACF84E09091B100987F10
:1004C000892B8093B100C13031F2C230C9F2C11121
:1004D000AECE20CF86E0F1CF3FB7F8948091C10136
:1004E0009091C201A091C301B091C40126B5A89B0F
:1004F00005C02F3F19F00196A11DB11D3FBFBA2FB6
:10050000A92F982F8827BC01CD01620F711D811D75
:10051000911D42E0660F771F881F991F4A95D1F7FA
:1005200008958F929F92AF92BF92CF92DF92EF92F7
:10053000FF924B015C010E946C026B017C010E94E6
:100540006C026C197D098E099F09683E7340810514
:100550009105A8F321E0821A9108A108B10888EE5C
:10056000C80E83E0D81EE11CF11C81149104A10483
:10057000B10429F7FF90EF90DF90CF90BF90AF903C
:100580009F908F9008959091000189130BC0E2EC29
:10059000F0E0E4919FEF90930001E13049F028F002
:1005A000E23061F060E00C948D0010926E00FACFA2
:1005B00090916F009D7F90936F00F4CF90917000A9
:1005C0009D7F9093700091E09093B0009091B10066
:1005D000987F94609093B1001092B300E3CFAF92F4
:1005E000BF92CF92DF92EF92FF920F931F93CF9320
:1005F000DF936C017B018B01040F151FEB015E0182
:10060000AE18BF08C017D10759F06991D601ED9116
:10061000FC910190F081E02DC6010995892B79F7B5
:10062000C501DF91CF911F910F91FF90EF90DF9067
:10063000CF90BF90AF900895FC01538D448D252F2E
:1006400030E0842F90E0821B930B541710F0CF966C
:10065000089501970895FC01918D828D981761F09E
:10066000A28DAE0FBF2FB11D5D968C91928D9F5FB5
:100670009F73928F90E008958FEF9FEF0895FC0194
:10068000918D828D981731F0828DE80FF11D858D47
:1006900090E008958FEF9FEF0895FC01918D228DDA
:1006A000892F90E0805C9F4F821B91098F7399275F
:1006B00008958AE191E00E944D0321E0892B09F41D
:1006C00020E0822F089580E090E0892B29F00E949D
:1006D000590381110C9400000895FC01A48DA80F0A
:1006E000B92FB11DA35ABF4F2C91848D90E0019674
:1006F0008F739927848FA689B7892C93A089B18994
:100700008C91837080648C93938D848D981306C034
:100710000288F389E02D80818F7D80830895EF9298
:10072000FF920F931F93CF93DF93EC0181E0888FAB
:100730009B8D8C8D98131AC0E889F989808185FF7B
:1007400015C09FB7F894EE89FF896083E889F9891D
:1007500080818370806480839FBF81E090E0DF911F
:10076000CF911F910F91FF90EF900895F62E0B8D72
:1007700010E00F5F1F4F0F731127E02E8C8D8E112D
:100780000CC00FB607FCFACFE889F989808185FF94
:10079000F5CFCE010E946D03F1CFEB8DEC0FFD2F55
:1007A000F11DE35AFF4FF0829FB7F8940B8FEA894F
:1007B000FB8980818062CFCFCF93DF93EC01888D5E
:1007C0008823B9F0AA89BB89E889F9898C9185FDCC
:1007D00003C0808186FD0DC00FB607FCF7CF8C915A
:1007E00085FFF2CF808185FFEDCFCE010E946D03A2
:1007F000E9CFDF91CF91089560E08AE00E948D00FB
:1008000061E08BE00E948D0060E08CE00E948D0032
:1008100061E088E00E948D00089561E08AE00E9416
:100820008D0060E08BE00E948D0061E08CE00E9412
:100830008D0060E088E00E948D0008951F920F9265
:100840000FB60F9211242F933F938F939F93AF93E3
:10085000BF938091BD019091BE01A091BF01B09165
:10086000C0013091BC0123E0230F2D3758F50196CC
:10087000A11DB11D2093BC018093BD019093BE01C9
:10088000A093BF01B093C0018091C1019091C201BA
:10089000A091C301B091C4010196A11DB11D809327
:1008A000C1019093C201A093C301B093C401BF9151
:1008B000AF919F918F913F912F910F900FBE0F900D
:1008C0001F90189526E8230F0296A11DB11DD2CFC7
:1008D0001F920F920FB60F9211242F933F934F93B5
:1008E0005F936F937F938F939F93AF93BF93EF9398
:1008F000FF938091CA019091CB01A091CC01B0915E
:10090000CD01892B8A2B8B2BD1F19091C501E091E0
:10091000C601F091C7018081892780838091CA0137
:100920009091CB01A091CC01B091CD011816190680
:100930001A061B069CF48091CA019091CB01A091EC
:10094000CC01B091CD010197A109B1098093CA01F1
:100950009093CB01A093CC01B093CD01FF91EF9187
:10096000BF91AF919F918F917F916F915F914F91C7
:100970003F912F910F900FBE0F901F90189580916F
:1009800000010E94C302EACF1F920F920FB60F928E
:1009900011242F933F934F935F936F937F938F9384
:1009A0009F93AF93BF93EF93FF938AE191E00E94EF
:1009B0006D03FF91EF91BF91AF919F918F917F91C7
:1009C0006F915F914F913F912F910F900FBE0F90BC
:1009D0001F9018951F920F920FB60F9211242F930C
:1009E0008F939F93EF93FF93E0912A01F0912B0156
:1009F0008081E0913001F091310182FD1BC0908136
:100A0000809133018F5F8F7320913401821741F001
:100A1000E0913301F0E0E65EFE4F958F8093330165
:100A2000FF91EF919F918F912F910F900FBE0F909B
:100A30001F9018958081F4CFCF92DF92EF92FF92B2
:100A40000F931F93E82FF92F05C0015011092109B9
:100A5000310961F1908196239417B9F305C00150D3
:100A600011092109310911F1908196239413F7CFCF
:100A7000C12CD12CE12CF12C0AC08FEFC81AD80A56
:100A8000E80AF80A0C151D052E053F0579F080814E
:100A90008623841791F36C2D7D2D8E2D9F2D1F9114
:100AA0000F91FF90EF90DF90CF90089560E070E09D
:100AB00080E090E01F910F91FF90EF90DF90CF903A
:100AC0000895CF93DF93CDB7DEB7A1970FB6F89413
:100AD000DEBF0FBECDBF789484B5826084BD84B57F
:100AE000816084BD85B5826085BD85B5816085BD29
:100AF00080916E00816080936E00109281008091E1
:100B00008100826080938100809181008160809368
:100B10008100809180008160809380008091B1008D
:100B200084608093B1008091B00081608093B000B8
:100B300080917A00846080937A0080917A0082604C
:100B400080937A0080917A00816080937A0080910E
:100B50007A00806880937A001092C100E0912A01A7
:100B6000F0912B0182E08083E0912601F091270132
:100B70001082E0912801F09129018FEC808310927E
:100B80003201E0912E01F0912F0186E08083E09107
:100B90002C01F0912D01808180618083E0912C01F6
:100BA000F0912D01808188608083E0912C01F0918B
:100BB0002D01808180688083E0912C01F0912D01CE
:100BC00080818F7D808361E089E00E94D90061E0AF
:100BD0008AE00E94D90061E08CE00E94D90061E0C7
:100BE0008BE00E94D90061E088E00E94D90093E088
:100BF000292E312C2AE3822E912CA12CB12C3AE003
:100C0000432E512C612C712C61E086E00E94D900AA
:100C100060E086E00E948D00C1010197F1F761E07C
:100C200086E00E948D0083E290E00197F1F760E09A
:100C300086E00E948D0060E082E00E94D900E2E937
:100C4000F0E06491E0EBF0E08491E82FF0E0EE0F4B
:100C5000FF1FE859FF4F8591949100E412E42FE0C3
:100C600030E0462F0E941C05611571058105910534
:100C700029F06F5F7F4F8F4F9F4F9F707093BB0125
:100C80006093BA01072E000C880B990BA501940103
:100C90000E94A00A69017A013093B9012093B8013A
:100CA0002B3031050CF0ECC381E08093B701C60115
:100CB00001978336910508F0B3C08091B70188236E
:100CC00009F4E1C3809116019091170101968430D7
:100CD000910509F4F0C0909317018093160180915B
:100CE000160190911701009709F0EAC00E94FC03D9
:100CF00060ED70E089E00E940A0162EC71E080E042
:100D000090E00E94910267E371E089E00E940A018D
:100D100068EC70E080E090E00E9491026FE971E081
:100D200089E00E940A0161EE70E080E090E00E949C
:100D3000910260ED70E089E00E940A0168EC70E0C9
:100D400080E090E00E94910267E371E089E00E94F8
:100D50000A0168EC70E080E090E00E9491026FE987
:100D600071E089E00E940A016CE271E080E090E0AD
:100D70000E94910289E00E94C30262E370E080E079
:100D800090E00E94910260ED70E089E00E940A010B
:100D900062EC71E080E090E00E94910267E371E014
:100DA00089E00E940A0168EC70E080E090E00E9417
:100DB00091026DE571E089E00E940A0161EE70E048
:100DC00080E090E00E94910260ED70E089E00E9476
:100DD0000A0168EC70E080E090E00E94910267E315
:100DE00071E089E00E940A0168EC70E080E090E028
:100DF0000E9491026DE571E089E00E940A016CE2B7
:100E000071E080E090E00E94910289E00E94C302BC
:100E100062E370E080E090E00E9491020E94FC0397
:100E2000F7FE18C36DE28AE191E00E948F0322274A
:100E30003327A9012C193D094E095F0919A2CE01DA
:100E400081967C01CA01B901A30192010E947E0A28
:100E5000605DF70162937F01211531054105510560
:100E600089F7E114F10461F001900020E9F731976E
:100E7000AF014E195F09B7018AE191E00E94EF02CC
:100E800042E050E063E171E08AE191E00E94EF020C
:100E900064E670E080E090E00E94910280E090E0E3
:100EA000892B09F4B1CE0E945903882309F4ACCEF2
:100EB0000E940000A9CE10921701109216010FCFC8
:100EC0008130910509F097C00E94FC0360ED70E04D
:100ED00089E00E940A0162EC71E080E090E00E94EB
:100EE000910267E371E089E00E940A0168EC70E01A
:100EF00080E090E00E9491026FE971E089E00E9439
:100F00000A0161EE70E080E090E00E94910260EDE5
:100F100070E089E00E940A0168EC70E080E090E0F7
:100F20000E94910267E371E089E00E940A0168EC87
:100F300070E080E090E00E9491026FE971E089E04A
:100F40000E940A016CE271E080E090E00E94910250
:100F500089E00E94C30262E370E080E090E00E94BA
:100F6000910260ED70E089E00E940A0162EC71E09C
:100F700080E090E00E94910267E371E089E00E94C6
:100F80000A0168EC70E080E090E00E9491026DE55B
:100F900071E089E00E940A0161EE70E080E090E07B
:100FA0000E94910260ED70E089E00E940A0168EC05
:100FB00070E080E090E00E94910267E371E089E0D8
:100FC0000E940A0168EC70E080E090E00E949102CB
:100FD0006DE571E089E00E940A016EE571E080E054
:100FE00090E00E94910289E00E94C3026CE271E0ED
:100FF00080E090E011CF8230910509F0A0C00E94FE
:10100000FC036FE373E089E00E940A0168EC70E082
:1010100080E090E00E94910264EA73E089E00E941F
:101020000A0168EC70E080E090E00E94910267E1C4
:1010300074E089E00E940A0168EC70E080E090E0D2
:101040000E94910289E00E94C30268EC70E080E097
:1010500090E00E94910267E174E089E00E940A0139
:1010600068EC70E080E090E00E94910264EA73E036
:1010700089E00E940A0168EC70E080E090E00E9444
:1010800091026FE373E089E00E940A016EE571E06E
:1010900080E090E00E94910264EA73E089E00E949F
:1010A0000A016DE072E080E090E00E9491026FE33F
:1010B00073E089E00E940A0168E572E080E090E058
:1010C0000E94910289E00E94C30268EC70E080E017
:1010D00090E00E9491026FE373E089E00E940A01B0
:1010E00068EC70E080E090E00E94910264EA73E0B6
:1010F00089E00E940A0168EC70E080E090E00E94C4
:10110000910267E174E089E00E940A0168EC70E0F6
:1011100080E090E00E94910289E00E94C30268ECA6
:1011200070E080E090E00E94910267E174E089E065
:101130000E940A0168EE73E080E090E052CF8330B5
:10114000910509F095C00E94FC036FE373E089E00C
:101150000E940A0168EC70E080E090E00E94910239
:1011600064EA73E089E00E940A0168EC70E080E0C4
:1011700090E00E94910267E174E089E00E940A0118
:1011800068EC70E080E090E00E94910289E00E94AB
:10119000C30268EC70E080E090E00E94910267E199
:1011A00074E089E00E940A0168EC70E080E090E061
:1011B0000E94910264EA73E089E00E940A0168ECEF
:1011C00070E080E090E00E9491026FE373E089E0BC
:1011D0000E940A016EE571E080E090E00E949102B9
:1011E00064EA73E089E00E940A016DE072E080E049
:1011F00090E00E9491026FE373E089E00E940A018F
:1012000068E572E080E090E00E94910289E00E942F
:10121000C30268EC70E080E090E00E9491026FE30E
:1012200073E089E00E940A0164EF71E080E090E0E1
:101230000E94910264EA73E089E00E940A0166E973
:1012400070E080E090E00E94910289E00E94C30279
:1012500064E670E080E090E00E94910264EA73E04E
:1012600089E00E940A016BE673E080E090E0B9CE6D
:10127000049709F0D3CD89E00E94C30260ED77E0C6
:1012800080E090E0C9CD1092190110921801809170
:10129000180190911901009709F047C00E940D04B0
:1012A00063E972E089E00E940A016EEE72E080E07C
:1012B00090E00E9491026CED73E089E00E940A01C7
:1012C0006EEE72E080E090E00E94910265E574E0CD
:1012D00089E00E940A016EEE72E080E090E00E94D8
:1012E000910263E972E089E00E940A016EEE72E009
:1012F00080E090E00E94910264EE72E089E00E943A
:101300000A016CE271E080E090E00E94910263E9E2
:1013100072E089E00E940A016EEE72E080E090E0E7
:101320000E9491020E940D047BCD8130910509F04D
:101330003FC00E940D046AE272E089E00E940A0147
:101340006AEF70E080E090E00E94910289E00E94E4
:10135000C30264E670E080E090E00E9491026AE2DD
:1013600072E089E00E940A016AEF70E080E090E09C
:101370000E9491026BE472E089E00E940A0160E938
:1013800071E080E090E00E94910263E972E089E000
:101390000E940A016EEE72E080E090E00E949102ED
:1013A00089E00E94C30264EF71E080E090E0B8CF72
:1013B0008230910509F043C00E940D0463E972E098
:1013C00089E00E940A016EEE72E080E090E00E94E7
:1013D00091026CED73E089E00E940A016AE872E014
:1013E00080E090E00E94910265E574E089E00E944F
:1013F0000A0164EF71E080E090E00E94910267E9E9
:1014000074E089E00E940A016AEF70E080E090E0F9
:101410000E94910265E574E089E00E940A0164EF90
:1014200071E080E090E00E9491026BE472E089E05C
:101430000E940A0168EE73E080E090E071CF0397AC
:1014400009F070CF89E00E94C30260ED77E080E090
:1014500090E066CFA701960119A2CE0181967C018A
:10146000CA01B901A30192010E947E0A605DF701E1
:1014700062937F01211531054105510589F7F1CCB2
:101480001092B70114CC8091180190911901019626
:101490008430910509F4F7CE9093190180931801D7
:1014A000F6CEEAE1F1E01382128288EE93E0A0E04A
:1014B000B0E084839583A683B78385E091E0918330
:1014C000808385EC90E09587848784EC90E0978713
:1014D000868780EC90E0918B808B81EC90E0938B01
:1014E000828B82EC90E0958B848B86EC90E0978BDE
:1014F000868B118E128E138E148E0895A1E21A2EF1
:10150000AA1BBB1BFD010DC0AA1FBB1FEE1FFF1FA7
:10151000A217B307E407F50720F0A21BB30BE40BF7
:10152000F50B661F771F881F991F1A9469F760953E
:101530007095809590959B01AC01BD01CF010895F8
:10154000052E97FB1EF400940E94B70A57FD07D0A2
:101550000E947E0A07FC03D04EF40C94B70A509503
:101560004095309521953F4F4F4F5F4F089590958F
:101570008095709561957F4F8F4F9F4F0895EE0F27
:0E158000FF1F0590F491E02D0994F894FFCF21
:10158E00FF000000008F03EF021C03DC034D032B52
:06159E00033F030D0A00EB
:00000001FF
