:100000000C9463000C948B000C948B000C948B006C
:100010000C948B000C948B000C948B000C940704B4
:100020000C948B000C948B000C948B000C948B0024
:100030000C948B000C948B000C948B000C948B0014
:100040000C94BD030C948B000C9489040C946304F1
:100050000C948B000C948B000C948B000C948B00F4
:100060000C948B000C948B000000000023002600F1
:10007000290000000000240027002A0000000008DA
:10008000000201000003040700000000000000005F
:10009000010204081020408001020408102001021F
:1000A0000408102000000000250028002B00040494
:1000B0000404040404040202020202020303030310
:1000C00003030200110711241FBECFEFD8E0DEBFEB
:1000D000CDBF11E0A0E0B1E0EEE0FFE002C005908E
:1000E0000D92A631B107D9F721E0A6E1B1E001C038
:1000F0001D92A13DB207E1F710E0C3E6D0E004C0D5
:100100002197FE010E947F07C236D107C9F70E94DE
:1001100000050C9485070C94000090E0FC01E45865
:10012000FF4F2491FC01E057FF4F3491FC01E25551
:10013000FF4FE491EE23C9F0222339F0233001F17F
:10014000A8F4213019F1223029F1F0E0EE0FFF1F61
:10015000EC55FF4FA591B4918FB7F894EC916111D4
:1001600026C030953E233C938FBF08952730A9F0D9
:100170002830C9F0243049F7809180008F7D03C07A
:10018000809180008F7780938000DFCF84B58F7758
:1001900084BDDBCF84B58F7DFBCF8091B0008F779E
:1001A0008093B000D2CF8091B0008F7DF9CF3E2BED
:1001B000DACFCF93DF9390E0FC01E057FF4F24911B
:1001C00082559F4FFC0184918823D1F090E0880FE5
:1001D000991FFC01EE58FF4FA591B491FC01EC551D
:1001E000FF4FC591D49161110EC09FB7F8948C91C7
:1001F000E22FE0958E238C932881E223E8839FBF32
:10020000DF91CF9108958FB7F894EC91E22BEC93A6
:100210008FBFF6CFCF92DF92EF92FF92CF936B0119
:1002200090910001891749F09F3F09F443C0CF9195
:10023000FF90EF90DF90CF900895E2ECF0E0C49152
:10024000C7FDF5CF61E00E94D900F12CE12CCC2351
:10025000D9F0960150E040E0C23009F0A4C07A0124
:1002600060E970ED83E090E00E946007BA01A901A7
:10027000415051096109710993E04F3F51056105F2
:10028000710509F00CF4CBC068E478EE81E090E0F1
:10029000A70196010E946007BA01A90141505109C6
:1002A0006109710994E0C111BAC085B5887F836086
:1002B00085BDC1C080930001E2ECF0E0C491CF3F66
:1002C00009F4B5CFC13039F148F0C23009F445C066
:1002D000C7FDADCF61E00E94D900BBCF14BC15BCF7
:1002E00094B5926094BD95B5916095BD282F30E08E
:1002F000F901E255FF4FE491F0E0EE0FFF1FEC55DE
:10030000FF4F45915491F901E057FF4FE491E0937D
:10031000C401C0E097CF10928000109281009091AC
:1003200081009860909381009091810091609093FA
:100330008100282F30E0F901E255FF4FE491F0E011
:10034000EE0FFF1FEC55FF4F45915491F901E05717
:10035000FF4FE491E093C30175CF1092B00010926B
:10036000B1009091B00092609093B0009091B10074
:1003700091609093B100282F30E0F901E255FF4FD2
:10038000E491F0E0EE0FFF1FEC55FF4F45915491C3
:100390005093C2014093C101F901E057FF4FE4912E
:1003A000E093C0014FCF60E072E18AE790E00E94E5
:1003B0006007BA01A9014150510961097109C130B1
:1003C000A1F580918100887F8160809381005093A6
:1003D0008900409388008FEF9FEFDC018093C90173
:1003E0009093CA01A093CB01B093CC0180916F0090
:1003F000826080936F001BCF4093B3008FEF9FEF1D
:10040000DC018093C5019093C601A093C701B0930E
:10041000C8018091700082608093700008CF809145
:10042000B100887F892B8093B100C13081F2C23046
:1004300019F3C111FCCE47BD8FEF9FEFDC01809314
:10044000CD019093CE01A093CF01B093D0018091C4
:100450006E00826080936E00EACE3FB7F894809180
:10046000BC019091BD01A091BE01B091BF0126B524
:10047000A89B05C02F3F19F00196A11DB11D3FBFDC
:10048000BA2FA92F982F8827BC01CD01620F711DAB
:10049000811D911D42E0660F771F881F991F4A95A5
:1004A000D1F708958F929F92AF92BF92CF92DF9231
:1004B000EF92FF924B015C010E942D026B017C01C7
:1004C0000E942D026C197D098E099F09683E7340B8
:1004D00081059105A8F321E0821A9108A108B108CD
:1004E00088EEC80E83E0D81EE11CF11C8114910433
:1004F000A104B10429F7FF90EF90DF90CF90BF9057
:10050000AF909F908F9008959091000189130BC038
:10051000E2ECF0E0E4919FEF90930001E13049F0CC
:1005200028F0E23061F060E00C948D0010926E00D3
:10053000FACF90916F009D7F90936F00F4CF9091D0
:1005400070009D7F9093700091E09093B000909127
:10055000B100987F94609093B1001092B300E3CF04
:10056000AF92BF92CF92DF92EF92FF920F931F93C1
:10057000CF93DF936C017B018B01040F151FEB01FF
:100580005E01AE18BF08C017D10759F06991D601B6
:10059000ED91FC910190F081E02DC6010995892B28
:1005A00079F7C501DF91CF911F910F91FF90EF90E7
:1005B000DF90CF90BF90AF900895FC01538D448D94
:1005C000252F30E0842F90E0821B930B541710F0FE
:1005D000CF96089501970895FC01918D828D98170B
:1005E00061F0A28DAE0FBF2FB11D5D968C91928DE3
:1005F0009F5F9F73928F90E008958FEF9FEF089514
:10060000FC01918D828D981731F0828DE80FF11DDC
:10061000858D90E008958FEF9FEF0895FC01918DF7
:10062000228D892F90E0805C9F4F821B91098F73F0
:100630009927089586E191E00E940E0321E0892B1D
:1006400009F420E0822F089580E090E0892B29F0C2
:100650000E941A0381110C9400000895FC01A48DDE
:10066000A80FB92FB11DA35ABF4F2C91848D90E0D4
:1006700001968F739927848FA689B7892C93A089B7
:10068000B1898C91837080648C93938D848D981341
:1006900006C00288F389E02D80818F7D80830895D4
:1006A000EF92FF920F931F93CF93DF93EC0181E0C2
:1006B000888F9B8D8C8D98131AC0E889F989808169
:1006C00085FF15C09FB7F894EE89FF896083E8899C
:1006D000F98980818370806480839FBF81E090E08E
:1006E000DF91CF911F910F91FF90EF900895F62E1B
:1006F0000B8D10E00F5F1F4F0F731127E02E8C8DB5
:100700008E110CC00FB607FCFACFE889F9898081F9
:1007100085FFF5CFCE010E942E03F1CFEB8DEC0FBC
:10072000FD2FF11DE35AFF4FF0829FB7F8940B8F16
:10073000EA89FB8980818062CFCFCF93DF93EC0180
:10074000888D8823B9F0AA89BB89E889F9898C91B9
:1007500085FD03C0808186FD0DC00FB607FCF7CF75
:100760008C9185FFF2CF808185FFEDCFCE010E9475
:100770002E03E9CFDF91CF9108951F920F920FB60C
:100780000F9211242F933F938F939F93AF93BF9317
:100790008091B8019091B901A091BA01B091BB01CB
:1007A0003091B70123E0230F2D3758F50196A11D95
:1007B000B11D2093B7018093B8019093B901A09324
:1007C000BA01B093BB018091BC019091BD01A09191
:1007D000BE01B091BF010196A11DB11D8093BC0166
:1007E0009093BD01A093BE01B093BF01BF91AF91A3
:1007F0009F918F913F912F910F900FBE0F901F905F
:10080000189526E8230F0296A11DB11DD2CF1F9285
:100810000F920FB60F9211242F933F934F935F9334
:100820006F937F938F939F93AF93BF93EF93FF93B8
:100830008091C5019091C601A091C701B091C801F6
:10084000892B8A2B8B2BD1F19091C001E091C101B2
:10085000F091C2018081892780838091C5019091A8
:10086000C601A091C701B091C801181619061A0651
:100870001B069CF48091C5019091C601A091C7010F
:10088000B091C8010197A109B1098093C501909366
:10089000C601A093C701B093C801FF91EF91BF912A
:1008A000AF919F918F917F916F915F914F913F9108
:1008B0002F910F900FBE0F901F90189580910001FF
:1008C0000E948402EACF1F920F920FB60F9211245A
:1008D0002F933F934F935F936F937F938F939F9348
:1008E000AF93BF93EF93FF9386E191E00E942E03B5
:1008F000FF91EF91BF91AF919F918F917F916F91F8
:100900005F914F913F912F910F900FBE0F901F90CD
:1009100018951F920F920FB60F9211242F938F9359
:100920009F93EF93FF93E0912601F091270180813F
:10093000E0912C01F0912D0182FD1BC090818091EE
:100940002F018F5F8F7320913001821741F0E0916A
:100950002F01F0E0EA5EFE4F958F80932F01FF910B
:10096000EF919F918F912F910F900FBE0F901F903D
:1009700018958081F4CFCF92DF92EF92FF920F9380
:100980001F93E82FF92F05C00150110921093109E2
:1009900061F1908196239417B9F305C001501109B4
:1009A0002109310911F1908196239413F7CFC12CBD
:1009B000D12CE12CF12C0AC08FEFC81AD80AE80A12
:1009C000F80A0C151D052E053F0579F08081862358
:1009D000841791F36C2D7D2D8E2D9F2D1F910F91DE
:1009E000FF90EF90DF90CF90089560E070E080E09E
:1009F00090E01F910F91FF90EF90DF90CF900895BE
:100A0000CF93DF93CDB7DEB7A1970FB6F894DEBFD3
:100A10000FBECDBF789484B5826084BD84B58160FB
:100A200084BD85B5826085BD85B5816085BD8091B9
:100A30006E00816080936E00109281008091810031
:100A40008260809381008091810081608093810029
:100A5000809180008160809380008091B1008460EB
:100A60008093B1008091B00081608093B00080914C
:100A70007A00846080937A0080917A00826080930B
:100A80007A0080917A00816080937A0080917A0068
:100A9000806880937A001092C10061E089E00E9432
:100AA000D900E0912601F091270182E08083E09156
:100AB0002201F09123011082E0912401F09125019F
:100AC0008FEC808310922E01E0912A01F0912B018E
:100AD00086E08083E0912801F09129018081806186
:100AE0008083E0912801F0912901808188608083D2
:100AF000E0912801F0912901808180688083E09154
:100B00002801F091290180818F7D808393E0292E37
:100B1000312C2AE3822E912CA12CB12C3AE0432EC9
:100B2000512C612C712C61E086E00E94D90060E0BC
:100B300086E00E948D00C1010197F1F761E086E037
:100B40000E948D0083E290E00197F1F760E086E07B
:100B50000E948D0060E084E00E94D900E4E9F0E0AA
:100B60006491E2EBF0E08491E82FF0E0EE0FFF1FDC
:100B7000E859FF4F8591949100E412E42FE030E0B2
:100B8000462F0E94BB04611571058105910529F06E
:100B90006F5F7F4F8F4F9F4F9F707093B601609331
:100BA000B501072E000C880B990BA50194010E943A
:100BB000600769017A0189013093B4012093B30180
:100BC0002115310509F4D2C0293231051CF489E020
:100BD0000E948402083211050CF4C2C063E972E07D
:100BE00089E00E940A016EEE72E080E090E00E94CF
:100BF00052026CED73E089E00E940A016EEE72E031
:100C000080E090E00E94520265E574E089E00E9475
:100C10000A016EEE72E080E090E00E94520263E909
:100C200072E089E00E940A016EEE72E080E090E0DE
:100C30000E94520264EE72E089E00E940A016CE2B6
:100C400071E080E090E00E94520263E972E089E086
:100C50000E940A016EEE72E080E090E00E94520273
:100C60006AE272E089E00E940A016AEF70E080E0C7
:100C700090E00E94520289E00E94840264E670E0E3
:100C800080E090E00E9452026AE272E089E00E94F5
:100C90000A016AEF70E080E090E00E9452026BE48B
:100CA00072E089E00E940A0160E971E080E090E072
:100CB0000E94520263E972E089E00E940A016EEE2E
:100CC00072E080E090E00E94520289E00E9484027B
:100CD00064EF71E080E090E00E94520263E972E00C
:100CE00089E00E940A016EEE72E080E090E00E94CE
:100CF00052026CED73E089E00E940A016AE872E03A
:100D000080E090E00E94520265E574E089E00E9474
:100D10000A0164EF71E080E090E00E94520267E90E
:100D200074E089E00E940A016AEF70E080E090E0E0
:100D30000E94520265E574E089E00E940A0164EFB6
:100D400071E080E090E00E9452026BE472E089E082
:100D50000E940A0168EE73E080E090E00E94520277
:100D600064E670E080E090E00E945202F7FE43C02B
:100D70006DE286E191E00E94500322273327A9010A
:100D80002C193D094E095F0919A2CE0181967C01FB
:100D9000CA01B901A30192010E943E07605DF701FB
:100DA00062937F01211531054105510589F7E11451
:100DB000F10461F001900020E9F73197AF014E197D
:100DC0005F09B70186E191E00E94B00242E050E085
:100DD00063E171E086E191E00E94B00280E090E082
:100DE000892B09F4A0CE0E941A03882309F49BCE14
:100DF0000E94000098CEA701960119A2CE0181960B
:100E00007C01CA01B901A30192010E943E07605D05
:100E1000F70162937F01211531054105510589F7DD
:100E2000C6CFE6E1F1E01382128288EE93E0A0E003
:100E3000B0E084839583A683B78385E091E09183B6
:100E4000808385EC90E09587848784EC90E0978799
:100E5000868780EC90E0918B808B81EC90E0938B87
:100E6000828B82EC90E0958B848B86EC90E0978B64
:100E7000868B118E128E138E148E0895A1E21A2E77
:100E8000AA1BBB1BFD010DC0AA1FBB1FEE1FFF1F2E
:100E9000A217B307E407F50720F0A21BB30BE40B7E
:100EA000F50B661F771F881F991F1A9469F76095C5
:100EB0007095809590959B01AC01BD01CF0108957F
:100EC000052E97FB1EF400940E94770757FD07D06C
:100ED0000E943E0707FC03D04EF40C947707509510
:100EE0004095309521953F4F4F4F5F4F0895909516
:100EF0008095709561957F4F8F4F9F4F0895EE0FAE
:0E0F0000FF1F0590F491E02D0994F894FFCFA7
:100F0E00FF000000005003B002DD029D030E03EC53
:060F1E000200030D0A00B1
:00000001FF
